{
  "contractName": "CCRToken",
  "abi": [
    {
      "inputs": [
        {
          "internalType": "string",
          "name": "tokenName",
          "type": "string"
        },
        {
          "internalType": "string",
          "name": "symbol",
          "type": "string"
        }
      ],
      "stateMutability": "nonpayable",
      "type": "constructor"
    },
    {
      "anonymous": false,
      "inputs": [
        {
          "indexed": true,
          "internalType": "address",
          "name": "owner",
          "type": "address"
        },
        {
          "indexed": true,
          "internalType": "address",
          "name": "approved",
          "type": "address"
        },
        {
          "indexed": true,
          "internalType": "uint256",
          "name": "tokenId",
          "type": "uint256"
        }
      ],
      "name": "Approval",
      "type": "event"
    },
    {
      "anonymous": false,
      "inputs": [
        {
          "indexed": true,
          "internalType": "address",
          "name": "owner",
          "type": "address"
        },
        {
          "indexed": true,
          "internalType": "address",
          "name": "operator",
          "type": "address"
        },
        {
          "indexed": false,
          "internalType": "bool",
          "name": "approved",
          "type": "bool"
        }
      ],
      "name": "ApprovalForAll",
      "type": "event"
    },
    {
      "anonymous": false,
      "inputs": [
        {
          "indexed": true,
          "internalType": "address",
          "name": "from",
          "type": "address"
        },
        {
          "indexed": true,
          "internalType": "address",
          "name": "to",
          "type": "address"
        },
        {
          "indexed": true,
          "internalType": "uint256",
          "name": "tokenId",
          "type": "uint256"
        }
      ],
      "name": "Transfer",
      "type": "event"
    },
    {
      "inputs": [
        {
          "internalType": "address",
          "name": "to",
          "type": "address"
        },
        {
          "internalType": "uint256",
          "name": "tokenId",
          "type": "uint256"
        }
      ],
      "name": "approve",
      "outputs": [],
      "stateMutability": "nonpayable",
      "type": "function"
    },
    {
      "inputs": [
        {
          "internalType": "address",
          "name": "owner",
          "type": "address"
        }
      ],
      "name": "balanceOf",
      "outputs": [
        {
          "internalType": "uint256",
          "name": "",
          "type": "uint256"
        }
      ],
      "stateMutability": "view",
      "type": "function"
    },
    {
      "inputs": [],
      "name": "baseURI",
      "outputs": [
        {
          "internalType": "string",
          "name": "",
          "type": "string"
        }
      ],
      "stateMutability": "view",
      "type": "function"
    },
    {
      "inputs": [
        {
          "internalType": "uint256",
          "name": "tokenId",
          "type": "uint256"
        }
      ],
      "name": "getApproved",
      "outputs": [
        {
          "internalType": "address",
          "name": "",
          "type": "address"
        }
      ],
      "stateMutability": "view",
      "type": "function"
    },
    {
      "inputs": [
        {
          "internalType": "address",
          "name": "owner",
          "type": "address"
        },
        {
          "internalType": "address",
          "name": "operator",
          "type": "address"
        }
      ],
      "name": "isApprovedForAll",
      "outputs": [
        {
          "internalType": "bool",
          "name": "",
          "type": "bool"
        }
      ],
      "stateMutability": "view",
      "type": "function"
    },
    {
      "inputs": [],
      "name": "name",
      "outputs": [
        {
          "internalType": "string",
          "name": "",
          "type": "string"
        }
      ],
      "stateMutability": "view",
      "type": "function"
    },
    {
      "inputs": [
        {
          "internalType": "uint256",
          "name": "tokenId",
          "type": "uint256"
        }
      ],
      "name": "ownerOf",
      "outputs": [
        {
          "internalType": "address",
          "name": "",
          "type": "address"
        }
      ],
      "stateMutability": "view",
      "type": "function"
    },
    {
      "inputs": [
        {
          "internalType": "address",
          "name": "from",
          "type": "address"
        },
        {
          "internalType": "address",
          "name": "to",
          "type": "address"
        },
        {
          "internalType": "uint256",
          "name": "tokenId",
          "type": "uint256"
        }
      ],
      "name": "safeTransferFrom",
      "outputs": [],
      "stateMutability": "nonpayable",
      "type": "function"
    },
    {
      "inputs": [
        {
          "internalType": "address",
          "name": "from",
          "type": "address"
        },
        {
          "internalType": "address",
          "name": "to",
          "type": "address"
        },
        {
          "internalType": "uint256",
          "name": "tokenId",
          "type": "uint256"
        },
        {
          "internalType": "bytes",
          "name": "_data",
          "type": "bytes"
        }
      ],
      "name": "safeTransferFrom",
      "outputs": [],
      "stateMutability": "nonpayable",
      "type": "function"
    },
    {
      "inputs": [
        {
          "internalType": "address",
          "name": "operator",
          "type": "address"
        },
        {
          "internalType": "bool",
          "name": "approved",
          "type": "bool"
        }
      ],
      "name": "setApprovalForAll",
      "outputs": [],
      "stateMutability": "nonpayable",
      "type": "function"
    },
    {
      "inputs": [
        {
          "internalType": "bytes4",
          "name": "interfaceId",
          "type": "bytes4"
        }
      ],
      "name": "supportsInterface",
      "outputs": [
        {
          "internalType": "bool",
          "name": "",
          "type": "bool"
        }
      ],
      "stateMutability": "view",
      "type": "function"
    },
    {
      "inputs": [],
      "name": "symbol",
      "outputs": [
        {
          "internalType": "string",
          "name": "",
          "type": "string"
        }
      ],
      "stateMutability": "view",
      "type": "function"
    },
    {
      "inputs": [
        {
          "internalType": "uint256",
          "name": "index",
          "type": "uint256"
        }
      ],
      "name": "tokenByIndex",
      "outputs": [
        {
          "internalType": "uint256",
          "name": "",
          "type": "uint256"
        }
      ],
      "stateMutability": "view",
      "type": "function"
    },
    {
      "inputs": [
        {
          "internalType": "address",
          "name": "owner",
          "type": "address"
        },
        {
          "internalType": "uint256",
          "name": "index",
          "type": "uint256"
        }
      ],
      "name": "tokenOfOwnerByIndex",
      "outputs": [
        {
          "internalType": "uint256",
          "name": "",
          "type": "uint256"
        }
      ],
      "stateMutability": "view",
      "type": "function"
    },
    {
      "inputs": [
        {
          "internalType": "uint256",
          "name": "tokenId",
          "type": "uint256"
        }
      ],
      "name": "tokenURI",
      "outputs": [
        {
          "internalType": "string",
          "name": "",
          "type": "string"
        }
      ],
      "stateMutability": "view",
      "type": "function"
    },
    {
      "inputs": [],
      "name": "totalSupply",
      "outputs": [
        {
          "internalType": "uint256",
          "name": "",
          "type": "uint256"
        }
      ],
      "stateMutability": "view",
      "type": "function"
    },
    {
      "inputs": [
        {
          "internalType": "address",
          "name": "from",
          "type": "address"
        },
        {
          "internalType": "address",
          "name": "to",
          "type": "address"
        },
        {
          "internalType": "uint256",
          "name": "tokenId",
          "type": "uint256"
        }
      ],
      "name": "transferFrom",
      "outputs": [],
      "stateMutability": "nonpayable",
      "type": "function"
    },
    {
      "inputs": [
        {
          "internalType": "address",
          "name": "owner",
          "type": "address"
        },
        {
          "internalType": "uint256",
          "name": "burntTokenValue",
          "type": "uint256"
        },
        {
          "internalType": "string",
          "name": "claimer",
          "type": "string"
        }
      ],
      "name": "mintCCR",
      "outputs": [
        {
          "internalType": "uint256",
          "name": "",
          "type": "uint256"
        }
      ],
      "stateMutability": "nonpayable",
      "type": "function"
    }
  ],
  "bytecode": "0x60806040523480156200001157600080fd5b5060405162003a4138038062003a418339818101604052810190620000379190620002db565b8181620000516301ffc9a760e01b620000d560201b60201c565b816006908051906020019062000069929190620001ad565b50806007908051906020019062000082929190620001ad565b506200009b6380ac58cd60e01b620000d560201b60201c565b620000b3635b5e139f60e01b620000d560201b60201c565b620000cb63780e9d6360e01b620000d560201b60201c565b5050505062000567565b63ffffffff60e01b817bffffffffffffffffffffffffffffffffffffffffffffffffffffffff1916141562000141576040517f08c379a0000000000000000000000000000000000000000000000000000000008152600401620001389062000387565b60405180910390fd5b6001600080837bffffffffffffffffffffffffffffffffffffffffffffffffffffffff19167bffffffffffffffffffffffffffffffffffffffffffffffffffffffff1916815260200190815260200160002060006101000a81548160ff02191690831515021790555050565b828054620001bb906200044f565b90600052602060002090601f016020900481019282620001df57600085556200022b565b82601f10620001fa57805160ff19168380011785556200022b565b828001600101855582156200022b579182015b828111156200022a5782518255916020019190600101906200020d565b5b5090506200023a91906200023e565b5090565b5b80821115620002595760008160009055506001016200023f565b5090565b6000620002746200026e84620003d2565b620003a9565b9050828152602081018484840111156200029357620002926200051e565b5b620002a084828562000419565b509392505050565b600082601f830112620002c057620002bf62000519565b5b8151620002d28482602086016200025d565b91505092915050565b60008060408385031215620002f557620002f462000528565b5b600083015167ffffffffffffffff81111562000316576200031562000523565b5b6200032485828601620002a8565b925050602083015167ffffffffffffffff81111562000348576200034762000523565b5b6200035685828601620002a8565b9150509250929050565b60006200036f601c8362000408565b91506200037c826200053e565b602082019050919050565b60006020820190508181036000830152620003a28162000360565b9050919050565b6000620003b5620003c8565b9050620003c3828262000485565b919050565b6000604051905090565b600067ffffffffffffffff821115620003f057620003ef620004ea565b5b620003fb826200052d565b9050602081019050919050565b600082825260208201905092915050565b60005b83811015620004395780820151818401526020810190506200041c565b8381111562000449576000848401525b50505050565b600060028204905060018216806200046857607f821691505b602082108114156200047f576200047e620004bb565b5b50919050565b62000490826200052d565b810181811067ffffffffffffffff82111715620004b257620004b1620004ea565b5b80604052505050565b7f4e487b7100000000000000000000000000000000000000000000000000000000600052602260045260246000fd5b7f4e487b7100000000000000000000000000000000000000000000000000000000600052604160045260246000fd5b600080fd5b600080fd5b600080fd5b600080fd5b6000601f19601f8301169050919050565b7f4552433136353a20696e76616c696420696e7465726661636520696400000000600082015250565b6134ca80620005776000396000f3fe608060405234801561001057600080fd5b50600436106101165760003560e01c80634f6ccce7116100a257806395d89b411161007157806395d89b4114610319578063a22cb46514610337578063b88d4fde14610353578063c87b56dd1461036f578063e985e9c51461039f57610116565b80634f6ccce71461026b5780636352211e1461029b5780636c0360eb146102cb57806370a08231146102e957610116565b80631011ae3d116100e95780631011ae3d146101b557806318160ddd146101e557806323b872dd146102035780632f745c591461021f57806342842e0e1461024f57610116565b806301ffc9a71461011b57806306fdde031461014b578063081812fc14610169578063095ea7b314610199575b600080fd5b61013560048036038101906101309190612323565b6103cf565b60405161014291906127c3565b60405180910390f35b610153610436565b60405161016091906127de565b60405180910390f35b610183600480360381019061017e919061237d565b6104c8565b604051610190919061275c565b60405180910390f35b6101b360048036038101906101ae9190612274565b61054d565b005b6101cf60048036038101906101ca91906122b4565b610665565b6040516101dc9190612a40565b60405180910390f35b6101ed6106a8565b6040516101fa9190612a40565b60405180910390f35b61021d6004803603810190610218919061215e565b6106b9565b005b61023960048036038101906102349190612274565b610719565b6040516102469190612a40565b60405180910390f35b6102696004803603810190610264919061215e565b610774565b005b6102856004803603810190610280919061237d565b610794565b6040516102929190612a40565b60405180910390f35b6102b560048036038101906102b0919061237d565b6107b7565b6040516102c2919061275c565b60405180910390f35b6102d36107ee565b6040516102e091906127de565b60405180910390f35b61030360048036038101906102fe91906120f1565b610880565b6040516103109190612a40565b60405180910390f35b61032161093f565b60405161032e91906127de565b60405180910390f35b610351600480360381019061034c9190612234565b6109d1565b005b61036d600480360381019061036891906121b1565b610b52565b005b6103896004803603810190610384919061237d565b610bb4565b60405161039691906127de565b60405180910390f35b6103b960048036038101906103b4919061211e565b610d27565b6040516103c691906127c3565b60405180910390f35b6000806000837bffffffffffffffffffffffffffffffffffffffffffffffffffffffff19167bffffffffffffffffffffffffffffffffffffffffffffffffffffffff1916815260200190815260200160002060009054906101000a900460ff169050919050565b60606006805461044590612ccb565b80601f016020809104026020016040519081016040528092919081815260200182805461047190612ccb565b80156104be5780601f10610493576101008083540402835291602001916104be565b820191906000526020600020905b8154815290600101906020018083116104a157829003601f168201915b5050505050905090565b60006104d382610dbb565b610512576040517f08c379a000000000000000000000000000000000000000000000000000000000815260040161050990612960565b60405180910390fd5b6004600083815260200190815260200160002060009054906101000a900473ffffffffffffffffffffffffffffffffffffffff169050919050565b6000610558826107b7565b90508073ffffffffffffffffffffffffffffffffffffffff168373ffffffffffffffffffffffffffffffffffffffff1614156105c9576040517f08c379a00000000000000000000000000000000000000000000000000000000081526004016105c0906129e0565b60405180910390fd5b8073ffffffffffffffffffffffffffffffffffffffff166105e8610dd8565b73ffffffffffffffffffffffffffffffffffffffff161480610617575061061681610611610dd8565b610d27565b5b610656576040517f08c379a000000000000000000000000000000000000000000000000000000000815260040161064d906128e0565b60405180910390fd5b6106608383610de0565b505050565b6000610671600c610e99565b600061067d600c610eb8565b90506106898582610ec6565b6106938185610ee4565b61069d8184610f48565b809150509392505050565b60006106b46002610fbc565b905090565b6106ca6106c4610dd8565b82610fd1565b610709576040517f08c379a000000000000000000000000000000000000000000000000000000000815260040161070090612a00565b60405180910390fd5b6107148383836110af565b505050565b600061076c82600160008673ffffffffffffffffffffffffffffffffffffffff1673ffffffffffffffffffffffffffffffffffffffff1681526020019081526020016000206112c690919063ffffffff16565b905092915050565b61078f83838360405180602001604052806000815250610b52565b505050565b6000806107ab8360026112e090919063ffffffff16565b50905080915050919050565b60006107e78260405180606001604052806029815260200161346c60299139600261130c9092919063ffffffff16565b9050919050565b6060600b80546107fd90612ccb565b80601f016020809104026020016040519081016040528092919081815260200182805461082990612ccb565b80156108765780601f1061084b57610100808354040283529160200191610876565b820191906000526020600020905b81548152906001019060200180831161085957829003601f168201915b5050505050905090565b60008073ffffffffffffffffffffffffffffffffffffffff168273ffffffffffffffffffffffffffffffffffffffff1614156108f1576040517f08c379a00000000000000000000000000000000000000000000000000000000081526004016108e890612900565b60405180910390fd5b610938600160008473ffffffffffffffffffffffffffffffffffffffff1673ffffffffffffffffffffffffffffffffffffffff16815260200190815260200160002061132b565b9050919050565b60606007805461094e90612ccb565b80601f016020809104026020016040519081016040528092919081815260200182805461097a90612ccb565b80156109c75780601f1061099c576101008083540402835291602001916109c7565b820191906000526020600020905b8154815290600101906020018083116109aa57829003601f168201915b5050505050905090565b6109d9610dd8565b73ffffffffffffffffffffffffffffffffffffffff168273ffffffffffffffffffffffffffffffffffffffff161415610a47576040517f08c379a0000000000000000000000000000000000000000000000000000000008152600401610a3e90612880565b60405180910390fd5b8060056000610a54610dd8565b73ffffffffffffffffffffffffffffffffffffffff1673ffffffffffffffffffffffffffffffffffffffff16815260200190815260200160002060008473ffffffffffffffffffffffffffffffffffffffff1673ffffffffffffffffffffffffffffffffffffffff16815260200190815260200160002060006101000a81548160ff0219169083151502179055508173ffffffffffffffffffffffffffffffffffffffff16610b01610dd8565b73ffffffffffffffffffffffffffffffffffffffff167f17307eab39ab6107e8899845ad3d59bd9653f200f220920489ca2b5937696c3183604051610b4691906127c3565b60405180910390a35050565b610b63610b5d610dd8565b83610fd1565b610ba2576040517f08c379a0000000000000000000000000000000000000000000000000000000008152600401610b9990612a00565b60405180910390fd5b610bae84848484611340565b50505050565b6060610bbf82610dbb565b610bfe576040517f08c379a0000000000000000000000000000000000000000000000000000000008152600401610bf5906129c0565b60405180910390fd5b6000600860008481526020019081526020016000208054610c1e90612ccb565b80601f0160208091040260200160405190810160405280929190818152602001828054610c4a90612ccb565b8015610c975780601f10610c6c57610100808354040283529160200191610c97565b820191906000526020600020905b815481529060010190602001808311610c7a57829003601f168201915b505050505090506000610ca86107ee565b9050600081511415610cbe578192505050610d22565b600082511115610cf3578082604051602001610cdb929190612738565b60405160208183030381529060405292505050610d22565b80610cfd8561139c565b604051602001610d0e929190612738565b604051602081830303815290604052925050505b919050565b6000600560008473ffffffffffffffffffffffffffffffffffffffff1673ffffffffffffffffffffffffffffffffffffffff16815260200190815260200160002060008373ffffffffffffffffffffffffffffffffffffffff1673ffffffffffffffffffffffffffffffffffffffff16815260200190815260200160002060009054906101000a900460ff16905092915050565b6000610dd182600261150f90919063ffffffff16565b9050919050565b600033905090565b816004600083815260200190815260200160002060006101000a81548173ffffffffffffffffffffffffffffffffffffffff021916908373ffffffffffffffffffffffffffffffffffffffff160217905550808273ffffffffffffffffffffffffffffffffffffffff16610e53836107b7565b73ffffffffffffffffffffffffffffffffffffffff167f8c5be1e5ebec7d5bd14f71427d1e84f3dd0314c0f7b2291e5b200ac8c7c3b92560405160405180910390a45050565b6001816000016000828254610eae9190612b30565b9250508190555050565b600081600001549050919050565b610ee0828260405180602001604052806000815250611529565b5050565b610eed82610dbb565b610f2c576040517f08c379a0000000000000000000000000000000000000000000000000000000008152600401610f2390612980565b60405180910390fd5b8060096000848152602001908152602001600020819055505050565b610f5182610dbb565b610f90576040517f08c379a0000000000000000000000000000000000000000000000000000000008152600401610f8790612980565b60405180910390fd5b80600a60008481526020019081526020016000209080519060200190610fb7929190611f05565b505050565b6000610fca82600001611584565b9050919050565b6000610fdc82610dbb565b61101b576040517f08c379a0000000000000000000000000000000000000000000000000000000008152600401611012906128c0565b60405180910390fd5b6000611026836107b7565b90508073ffffffffffffffffffffffffffffffffffffffff168473ffffffffffffffffffffffffffffffffffffffff16148061109557508373ffffffffffffffffffffffffffffffffffffffff1661107d846104c8565b73ffffffffffffffffffffffffffffffffffffffff16145b806110a657506110a58185610d27565b5b91505092915050565b8273ffffffffffffffffffffffffffffffffffffffff166110cf826107b7565b73ffffffffffffffffffffffffffffffffffffffff1614611125576040517f08c379a000000000000000000000000000000000000000000000000000000000815260040161111c906129a0565b60405180910390fd5b600073ffffffffffffffffffffffffffffffffffffffff168273ffffffffffffffffffffffffffffffffffffffff161415611195576040517f08c379a000000000000000000000000000000000000000000000000000000000815260040161118c90612860565b60405180910390fd5b6111a0838383611595565b6111ab600082610de0565b6111fc81600160008673ffffffffffffffffffffffffffffffffffffffff1673ffffffffffffffffffffffffffffffffffffffff16815260200190815260200160002061159a90919063ffffffff16565b5061124e81600160008573ffffffffffffffffffffffffffffffffffffffff1673ffffffffffffffffffffffffffffffffffffffff1681526020019081526020016000206115b490919063ffffffff16565b50611265818360026115ce9092919063ffffffff16565b50808273ffffffffffffffffffffffffffffffffffffffff168473ffffffffffffffffffffffffffffffffffffffff167fddf252ad1be2c89b69c2b068fc378daa952ba7f163c4a11628f55a4df523b3ef60405160405180910390a4505050565b60006112d58360000183611603565b60001c905092915050565b6000806000806112f38660000186611677565b915091508160001c8160001c9350935050509250929050565b600061131f846000018460001b84611701565b60001c90509392505050565b6000611339826000016117a2565b9050919050565b61134b8484846110af565b611357848484846117b3565b611396576040517f08c379a000000000000000000000000000000000000000000000000000000000815260040161138d90612820565b60405180910390fd5b50505050565b606060008214156113e4576040518060400160405280600181526020017f3000000000000000000000000000000000000000000000000000000000000000815250905061150a565b600082905060005b600082146114165780806113ff90612d2e565b915050600a8261140f9190612b86565b91506113ec565b60008167ffffffffffffffff81111561143257611431612e93565b5b6040519080825280601f01601f1916602001820160405280156114645781602001600182028036833780820191505090505b50905060006001836114769190612bb7565b90508593505b6000841461150257600a846114919190612d77565b603061149d9190612b30565b60f81b8282806114ac90612ca1565b9350815181106114bf576114be612e64565b5b60200101907effffffffffffffffffffffffffffffffffffffffffffffffffffffffffffff1916908160001a905350600a846114fb9190612b86565b935061147c565b819450505050505b919050565b6000611521836000018360001b611917565b905092915050565b611533838361193a565b61154060008484846117b3565b61157f576040517f08c379a000000000000000000000000000000000000000000000000000000000815260040161157690612820565b60405180910390fd5b505050565b600081600001805490509050919050565b505050565b60006115ac836000018360001b611ac8565b905092915050565b60006115c6836000018360001b611be0565b905092915050565b60006115fa846000018460001b8473ffffffffffffffffffffffffffffffffffffffff1660001b611c50565b90509392505050565b60008183600001805490501161164e576040517f08c379a000000000000000000000000000000000000000000000000000000000815260040161164590612800565b60405180910390fd5b82600001828154811061166457611663612e64565b5b9060005260206000200154905092915050565b600080828460000180549050116116c3576040517f08c379a00000000000000000000000000000000000000000000000000000000081526004016116ba90612920565b60405180910390fd5b60008460000184815481106116db576116da612e64565b5b906000526020600020906002020190508060000154816001015492509250509250929050565b60008084600101600085815260200190815260200160002054905060008114158390611763576040517f08c379a000000000000000000000000000000000000000000000000000000000815260040161175a91906127de565b60405180910390fd5b50846000016001826117759190612bb7565b8154811061178657611785612e64565b5b9060005260206000209060020201600101549150509392505050565b600081600001805490509050919050565b60006117d48473ffffffffffffffffffffffffffffffffffffffff16611d3c565b6117e1576001905061190f565b60006118a863150b7a0260e01b6117f6610dd8565b88878760405160240161180c9493929190612777565b604051602081830303815290604052907bffffffffffffffffffffffffffffffffffffffffffffffffffffffff19166020820180517bffffffffffffffffffffffffffffffffffffffffffffffffffffffff838183161783525050505060405180606001604052806032815260200161343a603291398773ffffffffffffffffffffffffffffffffffffffff16611d4f9092919063ffffffff16565b90506000818060200190518101906118c09190612350565b905063150b7a0260e01b7bffffffffffffffffffffffffffffffffffffffffffffffffffffffff1916817bffffffffffffffffffffffffffffffffffffffffffffffffffffffff191614925050505b949350505050565b600080836001016000848152602001908152602001600020541415905092915050565b600073ffffffffffffffffffffffffffffffffffffffff168273ffffffffffffffffffffffffffffffffffffffff1614156119aa576040517f08c379a00000000000000000000000000000000000000000000000000000000081526004016119a190612940565b60405180910390fd5b6119b381610dbb565b156119f3576040517f08c379a00000000000000000000000000000000000000000000000000000000081526004016119ea90612840565b60405180910390fd5b6119ff60008383611595565b611a5081600160008573ffffffffffffffffffffffffffffffffffffffff1673ffffffffffffffffffffffffffffffffffffffff1681526020019081526020016000206115b490919063ffffffff16565b50611a67818360026115ce9092919063ffffffff16565b50808273ffffffffffffffffffffffffffffffffffffffff16600073ffffffffffffffffffffffffffffffffffffffff167fddf252ad1be2c89b69c2b068fc378daa952ba7f163c4a11628f55a4df523b3ef60405160405180910390a45050565b60008083600101600084815260200190815260200160002054905060008114611bd4576000600182611afa9190612bb7565b9050600060018660000180549050611b129190612bb7565b90506000866000018281548110611b2c57611b2b612e64565b5b9060005260206000200154905080876000018481548110611b5057611b4f612e64565b5b9060005260206000200181905550600183611b6b9190612b30565b8760010160008381526020019081526020016000208190555086600001805480611b9857611b97612e35565b5b60019003818190600052602060002001600090559055866001016000878152602001908152602001600020600090556001945050505050611bda565b60009150505b92915050565b6000611bec8383611d67565b611c45578260000182908060018154018082558091505060019003906000526020600020016000909190919091505582600001805490508360010160008481526020019081526020016000208190555060019050611c4a565b600090505b92915050565b6000808460010160008581526020019081526020016000205490506000811415611cf757846000016040518060400160405280868152602001858152509080600181540180825580915050600190039060005260206000209060020201600090919091909150600082015181600001556020820151816001015550508460000180549050856001016000868152602001908152602001600020819055506001915050611d35565b8285600001600183611d099190612bb7565b81548110611d1a57611d19612e64565b5b90600052602060002090600202016001018190555060009150505b9392505050565b600080823b905060008111915050919050565b6060611d5e8484600085611d8a565b90509392505050565b600080836001016000848152602001908152602001600020541415905092915050565b606082471015611dcf576040517f08c379a0000000000000000000000000000000000000000000000000000000008152600401611dc6906128a0565b60405180910390fd5b611dd885611d3c565b611e17576040517f08c379a0000000000000000000000000000000000000000000000000000000008152600401611e0e90612a20565b60405180910390fd5b6000808673ffffffffffffffffffffffffffffffffffffffff168587604051611e409190612721565b60006040518083038185875af1925050503d8060008114611e7d576040519150601f19603f3d011682016040523d82523d6000602084013e611e82565b606091505b5091509150611e92828286611e9e565b92505050949350505050565b60608315611eae57829050611efe565b600083511115611ec15782518084602001fd5b816040517f08c379a0000000000000000000000000000000000000000000000000000000008152600401611ef591906127de565b60405180910390fd5b9392505050565b828054611f1190612ccb565b90600052602060002090601f016020900481019282611f335760008555611f7a565b82601f10611f4c57805160ff1916838001178555611f7a565b82800160010185558215611f7a579182015b82811115611f79578251825591602001919060010190611f5e565b5b509050611f879190611f8b565b5090565b5b80821115611fa4576000816000905550600101611f8c565b5090565b6000611fbb611fb684612a80565b612a5b565b905082815260208101848484011115611fd757611fd6612ec7565b5b611fe2848285612c5f565b509392505050565b6000611ffd611ff884612ab1565b612a5b565b90508281526020810184848401111561201957612018612ec7565b5b612024848285612c5f565b509392505050565b60008135905061203b816133dd565b92915050565b600081359050612050816133f4565b92915050565b6000813590506120658161340b565b92915050565b60008151905061207a8161340b565b92915050565b600082601f83011261209557612094612ec2565b5b81356120a5848260208601611fa8565b91505092915050565b600082601f8301126120c3576120c2612ec2565b5b81356120d3848260208601611fea565b91505092915050565b6000813590506120eb81613422565b92915050565b60006020828403121561210757612106612ed1565b5b60006121158482850161202c565b91505092915050565b6000806040838503121561213557612134612ed1565b5b60006121438582860161202c565b92505060206121548582860161202c565b9150509250929050565b60008060006060848603121561217757612176612ed1565b5b60006121858682870161202c565b93505060206121968682870161202c565b92505060406121a7868287016120dc565b9150509250925092565b600080600080608085870312156121cb576121ca612ed1565b5b60006121d98782880161202c565b94505060206121ea8782880161202c565b93505060406121fb878288016120dc565b925050606085013567ffffffffffffffff81111561221c5761221b612ecc565b5b61222887828801612080565b91505092959194509250565b6000806040838503121561224b5761224a612ed1565b5b60006122598582860161202c565b925050602061226a85828601612041565b9150509250929050565b6000806040838503121561228b5761228a612ed1565b5b60006122998582860161202c565b92505060206122aa858286016120dc565b9150509250929050565b6000806000606084860312156122cd576122cc612ed1565b5b60006122db8682870161202c565b93505060206122ec868287016120dc565b925050604084013567ffffffffffffffff81111561230d5761230c612ecc565b5b612319868287016120ae565b9150509250925092565b60006020828403121561233957612338612ed1565b5b600061234784828501612056565b91505092915050565b60006020828403121561236657612365612ed1565b5b60006123748482850161206b565b91505092915050565b60006020828403121561239357612392612ed1565b5b60006123a1848285016120dc565b91505092915050565b6123b381612beb565b82525050565b6123c281612bfd565b82525050565b60006123d382612ae2565b6123dd8185612af8565b93506123ed818560208601612c6e565b6123f681612ed6565b840191505092915050565b600061240c82612ae2565b6124168185612b09565b9350612426818560208601612c6e565b80840191505092915050565b600061243d82612aed565b6124478185612b14565b9350612457818560208601612c6e565b61246081612ed6565b840191505092915050565b600061247682612aed565b6124808185612b25565b9350612490818560208601612c6e565b80840191505092915050565b60006124a9602283612b14565b91506124b482612ee7565b604082019050919050565b60006124cc603283612b14565b91506124d782612f36565b604082019050919050565b60006124ef601c83612b14565b91506124fa82612f85565b602082019050919050565b6000612512602483612b14565b915061251d82612fae565b604082019050919050565b6000612535601983612b14565b915061254082612ffd565b602082019050919050565b6000612558602683612b14565b915061256382613026565b604082019050919050565b600061257b602c83612b14565b915061258682613075565b604082019050919050565b600061259e603883612b14565b91506125a9826130c4565b604082019050919050565b60006125c1602a83612b14565b91506125cc82613113565b604082019050919050565b60006125e4602283612b14565b91506125ef82613162565b604082019050919050565b6000612607602083612b14565b9150612612826131b1565b602082019050919050565b600061262a602c83612b14565b9150612635826131da565b604082019050919050565b600061264d602c83612b14565b915061265882613229565b604082019050919050565b6000612670602983612b14565b915061267b82613278565b604082019050919050565b6000612693602f83612b14565b915061269e826132c7565b604082019050919050565b60006126b6602183612b14565b91506126c182613316565b604082019050919050565b60006126d9603183612b14565b91506126e482613365565b604082019050919050565b60006126fc601d83612b14565b9150612707826133b4565b602082019050919050565b61271b81612c55565b82525050565b600061272d8284612401565b915081905092915050565b6000612744828561246b565b9150612750828461246b565b91508190509392505050565b600060208201905061277160008301846123aa565b92915050565b600060808201905061278c60008301876123aa565b61279960208301866123aa565b6127a66040830185612712565b81810360608301526127b881846123c8565b905095945050505050565b60006020820190506127d860008301846123b9565b92915050565b600060208201905081810360008301526127f88184612432565b905092915050565b600060208201905081810360008301526128198161249c565b9050919050565b60006020820190508181036000830152612839816124bf565b9050919050565b60006020820190508181036000830152612859816124e2565b9050919050565b6000602082019050818103600083015261287981612505565b9050919050565b6000602082019050818103600083015261289981612528565b9050919050565b600060208201905081810360008301526128b98161254b565b9050919050565b600060208201905081810360008301526128d98161256e565b9050919050565b600060208201905081810360008301526128f981612591565b9050919050565b60006020820190508181036000830152612919816125b4565b9050919050565b60006020820190508181036000830152612939816125d7565b9050919050565b60006020820190508181036000830152612959816125fa565b9050919050565b600060208201905081810360008301526129798161261d565b9050919050565b6000602082019050818103600083015261299981612640565b9050919050565b600060208201905081810360008301526129b981612663565b9050919050565b600060208201905081810360008301526129d981612686565b9050919050565b600060208201905081810360008301526129f9816126a9565b9050919050565b60006020820190508181036000830152612a19816126cc565b9050919050565b60006020820190508181036000830152612a39816126ef565b9050919050565b6000602082019050612a556000830184612712565b92915050565b6000612a65612a76565b9050612a718282612cfd565b919050565b6000604051905090565b600067ffffffffffffffff821115612a9b57612a9a612e93565b5b612aa482612ed6565b9050602081019050919050565b600067ffffffffffffffff821115612acc57612acb612e93565b5b612ad582612ed6565b9050602081019050919050565b600081519050919050565b600081519050919050565b600082825260208201905092915050565b600081905092915050565b600082825260208201905092915050565b600081905092915050565b6000612b3b82612c55565b9150612b4683612c55565b9250827fffffffffffffffffffffffffffffffffffffffffffffffffffffffffffffffff03821115612b7b57612b7a612da8565b5b828201905092915050565b6000612b9182612c55565b9150612b9c83612c55565b925082612bac57612bab612dd7565b5b828204905092915050565b6000612bc282612c55565b9150612bcd83612c55565b925082821015612be057612bdf612da8565b5b828203905092915050565b6000612bf682612c35565b9050919050565b60008115159050919050565b60007fffffffff0000000000000000000000000000000000000000000000000000000082169050919050565b600073ffffffffffffffffffffffffffffffffffffffff82169050919050565b6000819050919050565b82818337600083830152505050565b60005b83811015612c8c578082015181840152602081019050612c71565b83811115612c9b576000848401525b50505050565b6000612cac82612c55565b91506000821415612cc057612cbf612da8565b5b600182039050919050565b60006002820490506001821680612ce357607f821691505b60208210811415612cf757612cf6612e06565b5b50919050565b612d0682612ed6565b810181811067ffffffffffffffff82111715612d2557612d24612e93565b5b80604052505050565b6000612d3982612c55565b91507fffffffffffffffffffffffffffffffffffffffffffffffffffffffffffffffff821415612d6c57612d6b612da8565b5b600182019050919050565b6000612d8282612c55565b9150612d8d83612c55565b925082612d9d57612d9c612dd7565b5b828206905092915050565b7f4e487b7100000000000000000000000000000000000000000000000000000000600052601160045260246000fd5b7f4e487b7100000000000000000000000000000000000000000000000000000000600052601260045260246000fd5b7f4e487b7100000000000000000000000000000000000000000000000000000000600052602260045260246000fd5b7f4e487b7100000000000000000000000000000000000000000000000000000000600052603160045260246000fd5b7f4e487b7100000000000000000000000000000000000000000000000000000000600052603260045260246000fd5b7f4e487b7100000000000000000000000000000000000000000000000000000000600052604160045260246000fd5b600080fd5b600080fd5b600080fd5b600080fd5b6000601f19601f8301169050919050565b7f456e756d657261626c655365743a20696e646578206f7574206f6620626f756e60008201527f6473000000000000000000000000000000000000000000000000000000000000602082015250565b7f4552433732313a207472616e7366657220746f206e6f6e20455243373231526560008201527f63656976657220696d706c656d656e7465720000000000000000000000000000602082015250565b7f4552433732313a20746f6b656e20616c7265616479206d696e74656400000000600082015250565b7f4552433732313a207472616e7366657220746f20746865207a65726f2061646460008201527f7265737300000000000000000000000000000000000000000000000000000000602082015250565b7f4552433732313a20617070726f766520746f2063616c6c657200000000000000600082015250565b7f416464726573733a20696e73756666696369656e742062616c616e636520666f60008201527f722063616c6c0000000000000000000000000000000000000000000000000000602082015250565b7f4552433732313a206f70657261746f7220717565727920666f72206e6f6e657860008201527f697374656e7420746f6b656e0000000000000000000000000000000000000000602082015250565b7f4552433732313a20617070726f76652063616c6c6572206973206e6f74206f7760008201527f6e6572206e6f7220617070726f76656420666f7220616c6c0000000000000000602082015250565b7f4552433732313a2062616c616e636520717565727920666f7220746865207a6560008201527f726f206164647265737300000000000000000000000000000000000000000000602082015250565b7f456e756d657261626c654d61703a20696e646578206f7574206f6620626f756e60008201527f6473000000000000000000000000000000000000000000000000000000000000602082015250565b7f4552433732313a206d696e7420746f20746865207a65726f2061646472657373600082015250565b7f4552433732313a20617070726f76656420717565727920666f72206e6f6e657860008201527f697374656e7420746f6b656e0000000000000000000000000000000000000000602082015250565b7f4552433732314d657461646174613a2055524920736574206f66206e6f6e657860008201527f697374656e7420746f6b656e0000000000000000000000000000000000000000602082015250565b7f4552433732313a207472616e73666572206f6620746f6b656e2074686174206960008201527f73206e6f74206f776e0000000000000000000000000000000000000000000000602082015250565b7f4552433732314d657461646174613a2055524920717565727920666f72206e6f60008201527f6e6578697374656e7420746f6b656e0000000000000000000000000000000000602082015250565b7f4552433732313a20617070726f76616c20746f2063757272656e74206f776e6560008201527f7200000000000000000000000000000000000000000000000000000000000000602082015250565b7f4552433732313a207472616e736665722063616c6c6572206973206e6f74206f60008201527f776e6572206e6f7220617070726f766564000000000000000000000000000000602082015250565b7f416464726573733a2063616c6c20746f206e6f6e2d636f6e7472616374000000600082015250565b6133e681612beb565b81146133f157600080fd5b50565b6133fd81612bfd565b811461340857600080fd5b50565b61341481612c09565b811461341f57600080fd5b50565b61342b81612c55565b811461343657600080fd5b5056fe4552433732313a207472616e7366657220746f206e6f6e20455243373231526563656976657220696d706c656d656e7465724552433732313a206f776e657220717565727920666f72206e6f6e6578697374656e7420746f6b656ea26469706673582212201b104e3f86c6cd1e46c24ce03e1302443a89c083e134d5af9748d880b2ccae9964736f6c63430008070033",
  "immutableReferences": {},
  "source": "// SPDX-License-Identifier: MIT\r\n// File: @openzeppelin/contracts/utils/Context.sol\r\n\r\npragma solidity >=0.6.0 <=0.8.7;\r\n\r\n/*\r\n * @dev Provides information about the current execution context, including the\r\n * sender of the transaction and its data. While these are generally available\r\n * via msg.sender and msg.data, they should not be accessed in such a direct\r\n * manner, since when dealing with GSN meta-transactions the account sending and\r\n * paying for execution may not be the actual sender (as far as an application\r\n * is concerned).\r\n *\r\n * This contract is only required for intermediate, library-like contracts.\r\n */\r\nabstract contract Context {\r\n    function _msgSender() internal view virtual returns (address) {\r\n        return msg.sender;\r\n    }\r\n\r\n    function _msgData() internal view virtual returns (bytes memory) {\r\n        this; // silence state mutability warning without generating bytecode - see https://github.com/ethereum/solidity/issues/2691\r\n        return msg.data;\r\n    }\r\n}\r\n\r\n// File: @openzeppelin/contracts/introspection/IERC165.sol\r\n\r\n/**\r\n * @dev Interface of the ERC165 standard, as defined in the\r\n * https://eips.ethereum.org/EIPS/eip-165[EIP].\r\n *\r\n * Implementers can declare support of contract interfaces, which can then be\r\n * queried by others ({ERC165Checker}).\r\n *\r\n * For an implementation, see {ERC165}.\r\n */\r\ninterface IERC165 {\r\n    /**\r\n     * @dev Returns true if this contract implements the interface defined by\r\n     * `interfaceId`. See the corresponding\r\n     * https://eips.ethereum.org/EIPS/eip-165#how-interfaces-are-identified[EIP section]\r\n     * to learn more about how these ids are created.\r\n     *\r\n     * This function call must use less than 30 000 gas.\r\n     */\r\n    function supportsInterface(bytes4 interfaceId) external view returns (bool);\r\n}\r\n\r\n// File: @openzeppelin/contracts/token/ERC721/IERC721.sol\r\n\r\n/**\r\n * @dev Required interface of an ERC721 compliant contract.\r\n */\r\ninterface IERC721 is IERC165 {\r\n    /**\r\n     * @dev Emitted when `tokenId` token is transferred from `from` to `to`.\r\n     */\r\n    event Transfer(\r\n        address indexed from,\r\n        address indexed to,\r\n        uint256 indexed tokenId\r\n    );\r\n\r\n    /**\r\n     * @dev Emitted when `owner` enables `approved` to manage the `tokenId` token.\r\n     */\r\n    event Approval(\r\n        address indexed owner,\r\n        address indexed approved,\r\n        uint256 indexed tokenId\r\n    );\r\n\r\n    /**\r\n     * @dev Emitted when `owner` enables or disables (`approved`) `operator` to manage all of its assets.\r\n     */\r\n    event ApprovalForAll(\r\n        address indexed owner,\r\n        address indexed operator,\r\n        bool approved\r\n    );\r\n\r\n    /**\r\n     * @dev Returns the number of tokens in ``owner``'s account.\r\n     */\r\n    function balanceOf(address owner) external view returns (uint256 balance);\r\n\r\n    /**\r\n     * @dev Returns the owner of the `tokenId` token.\r\n     *\r\n     * Requirements:\r\n     *\r\n     * - `tokenId` must exist.\r\n     */\r\n    function ownerOf(uint256 tokenId) external view returns (address owner);\r\n\r\n    /**\r\n     * @dev Safely transfers `tokenId` token from `from` to `to`, checking first that contract recipients\r\n     * are aware of the ERC721 protocol to prevent tokens from being forever locked.\r\n     *\r\n     * Requirements:\r\n     *\r\n     * - `from` cannot be the zero address.\r\n     * - `to` cannot be the zero address.\r\n     * - `tokenId` token must exist and be owned by `from`.\r\n     * - If the caller is not `from`, it must be have been allowed to move this token by either {approve} or {setApprovalForAll}.\r\n     * - If `to` refers to a smart contract, it must implement {IERC721Receiver-onERC721Received}, which is called upon a safe transfer.\r\n     *\r\n     * Emits a {Transfer} event.\r\n     */\r\n    function safeTransferFrom(\r\n        address from,\r\n        address to,\r\n        uint256 tokenId\r\n    ) external;\r\n\r\n    /**\r\n     * @dev Transfers `tokenId` token from `from` to `to`.\r\n     *\r\n     * WARNING: Usage of this method is discouraged, use {safeTransferFrom} whenever possible.\r\n     *\r\n     * Requirements:\r\n     *\r\n     * - `from` cannot be the zero address.\r\n     * - `to` cannot be the zero address.\r\n     * - `tokenId` token must be owned by `from`.\r\n     * - If the caller is not `from`, it must be approved to move this token by either {approve} or {setApprovalForAll}.\r\n     *\r\n     * Emits a {Transfer} event.\r\n     */\r\n    function transferFrom(\r\n        address from,\r\n        address to,\r\n        uint256 tokenId\r\n    ) external;\r\n\r\n    /**\r\n     * @dev Gives permission to `to` to transfer `tokenId` token to another account.\r\n     * The approval is cleared when the token is transferred.\r\n     *\r\n     * Only a single account can be approved at a time, so approving the zero address clears previous approvals.\r\n     *\r\n     * Requirements:\r\n     *\r\n     * - The caller must own the token or be an approved operator.\r\n     * - `tokenId` must exist.\r\n     *\r\n     * Emits an {Approval} event.\r\n     */\r\n    function approve(address to, uint256 tokenId) external;\r\n\r\n    /**\r\n     * @dev Returns the account approved for `tokenId` token.\r\n     *\r\n     * Requirements:\r\n     *\r\n     * - `tokenId` must exist.\r\n     */\r\n    function getApproved(uint256 tokenId)\r\n        external\r\n        view\r\n        returns (address operator);\r\n\r\n    /**\r\n     * @dev Approve or remove `operator` as an operator for the caller.\r\n     * Operators can call {transferFrom} or {safeTransferFrom} for any token owned by the caller.\r\n     *\r\n     * Requirements:\r\n     *\r\n     * - The `operator` cannot be the caller.\r\n     *\r\n     * Emits an {ApprovalForAll} event.\r\n     */\r\n    function setApprovalForAll(address operator, bool _approved) external;\r\n\r\n    /**\r\n     * @dev Returns if the `operator` is allowed to manage all of the assets of `owner`.\r\n     *\r\n     * See {setApprovalForAll}\r\n     */\r\n    function isApprovedForAll(address owner, address operator)\r\n        external\r\n        view\r\n        returns (bool);\r\n\r\n    /**\r\n     * @dev Safely transfers `tokenId` token from `from` to `to`.\r\n     *\r\n     * Requirements:\r\n     *\r\n     * - `from` cannot be the zero address.\r\n     * - `to` cannot be the zero address.\r\n     * - `tokenId` token must exist and be owned by `from`.\r\n     * - If the caller is not `from`, it must be approved to move this token by either {approve} or {setApprovalForAll}.\r\n     * - If `to` refers to a smart contract, it must implement {IERC721Receiver-onERC721Received}, which is called upon a safe transfer.\r\n     *\r\n     * Emits a {Transfer} event.\r\n     */\r\n    function safeTransferFrom(\r\n        address from,\r\n        address to,\r\n        uint256 tokenId,\r\n        bytes calldata data\r\n    ) external;\r\n}\r\n\r\n// File: @openzeppelin/contracts/token/ERC721/IERC721Metadata.sol\r\n\r\n/**\r\n * @title ERC-721 Non-Fungible Token Standard, optional metadata extension\r\n * @dev See https://eips.ethereum.org/EIPS/eip-721\r\n */\r\ninterface IERC721Metadata is IERC721 {\r\n    /**\r\n     * @dev Returns the token collection name.\r\n     */\r\n    function name() external view returns (string memory);\r\n\r\n    /**\r\n     * @dev Returns the token collection symbol.\r\n     */\r\n    function symbol() external view returns (string memory);\r\n\r\n    /**\r\n     * @dev Returns the Uniform Resource Identifier (URI) for `tokenId` token.\r\n     */\r\n    function tokenURI(uint256 tokenId) external view returns (string memory);\r\n}\r\n\r\n// File: @openzeppelin/contracts/token/ERC721/IERC721Enumerable.sol\r\n\r\n/**\r\n * @title ERC-721 Non-Fungible Token Standard, optional enumeration extension\r\n * @dev See https://eips.ethereum.org/EIPS/eip-721\r\n */\r\ninterface IERC721Enumerable is IERC721 {\r\n    /**\r\n     * @dev Returns the total amount of tokens stored by the contract.\r\n     */\r\n    function totalSupply() external view returns (uint256);\r\n\r\n    /**\r\n     * @dev Returns a token ID owned by `owner` at a given `index` of its token list.\r\n     * Use along with {balanceOf} to enumerate all of ``owner``'s tokens.\r\n     */\r\n    function tokenOfOwnerByIndex(address owner, uint256 index)\r\n        external\r\n        view\r\n        returns (uint256 tokenId);\r\n\r\n    /**\r\n     * @dev Returns a token ID at a given `index` of all the tokens stored by the contract.\r\n     * Use along with {totalSupply} to enumerate all tokens.\r\n     */\r\n    function tokenByIndex(uint256 index) external view returns (uint256);\r\n}\r\n\r\n// File: @openzeppelin/contracts/token/ERC721/IERC721Receiver.sol\r\n\r\n/**\r\n * @title ERC721 token receiver interface\r\n * @dev Interface for any contract that wants to support safeTransfers\r\n * from ERC721 asset contracts.\r\n */\r\ninterface IERC721Receiver {\r\n    /**\r\n     * @dev Whenever an {IERC721} `tokenId` token is transferred to this contract via {IERC721-safeTransferFrom}\r\n     * by `operator` from `from`, this function is called.\r\n     *\r\n     * It must return its Solidity selector to confirm the token transfer.\r\n     * If any other value is returned or the interface is not implemented by the recipient, the transfer will be reverted.\r\n     *\r\n     * The selector can be obtained in Solidity with `IERC721.onERC721Received.selector`.\r\n     */\r\n    function onERC721Received(\r\n        address operator,\r\n        address from,\r\n        uint256 tokenId,\r\n        bytes calldata data\r\n    ) external returns (bytes4);\r\n}\r\n\r\n// File: @openzeppelin/contracts/introspection/ERC165.sol\r\n\r\n/**\r\n * @dev Implementation of the {IERC165} interface.\r\n *\r\n * Contracts may inherit from this and call {_registerInterface} to declare\r\n * their support of an interface.\r\n */\r\nabstract contract ERC165 is IERC165 {\r\n    /*\r\n     * bytes4(keccak256('supportsInterface(bytes4)')) == 0x01ffc9a7\r\n     */\r\n    bytes4 private constant _INTERFACE_ID_ERC165 = 0x01ffc9a7;\r\n\r\n    /**\r\n     * @dev Mapping of interface ids to whether or not it's supported.\r\n     */\r\n    mapping(bytes4 => bool) private _supportedInterfaces;\r\n\r\n    constructor() {\r\n        // Derived contracts need only register support for their own interfaces,\r\n        // we register support for ERC165 itself here\r\n        _registerInterface(_INTERFACE_ID_ERC165);\r\n    }\r\n\r\n    /**\r\n     * @dev See {IERC165-supportsInterface}.\r\n     *\r\n     * Time complexity O(1), guaranteed to always use less than 30 000 gas.\r\n     */\r\n    function supportsInterface(bytes4 interfaceId)\r\n        public\r\n        view\r\n        virtual\r\n        override\r\n        returns (bool)\r\n    {\r\n        return _supportedInterfaces[interfaceId];\r\n    }\r\n\r\n    /**\r\n     * @dev Registers the contract as an implementer of the interface defined by\r\n     * `interfaceId`. Support of the actual ERC165 interface is automatic and\r\n     * registering its interface id is not required.\r\n     *\r\n     * See {IERC165-supportsInterface}.\r\n     *\r\n     * Requirements:\r\n     *\r\n     * - `interfaceId` cannot be the ERC165 invalid interface (`0xffffffff`).\r\n     */\r\n    function _registerInterface(bytes4 interfaceId) internal virtual {\r\n        require(interfaceId != 0xffffffff, \"ERC165: invalid interface id\");\r\n        _supportedInterfaces[interfaceId] = true;\r\n    }\r\n}\r\n\r\n// File: @openzeppelin/contracts/math/SafeMath.sol\r\n\r\n/**\r\n * @dev Wrappers over Solidity's arithmetic operations with added overflow\r\n * checks.\r\n *\r\n * Arithmetic operations in Solidity wrap on overflow. This can easily result\r\n * in bugs, because programmers usually assume that an overflow raises an\r\n * error, which is the standard behavior in high level programming languages.\r\n * `SafeMath` restores this intuition by reverting the transaction when an\r\n * operation overflows.\r\n *\r\n * Using this library instead of the unchecked operations eliminates an entire\r\n * class of bugs, so it's recommended to use it always.\r\n */\r\nlibrary SafeMath {\r\n    /**\r\n     * @dev Returns the addition of two unsigned integers, with an overflow flag.\r\n     *\r\n     * _Available since v3.4._\r\n     */\r\n    function tryAdd(uint256 a, uint256 b)\r\n        internal\r\n        pure\r\n        returns (bool, uint256)\r\n    {\r\n        uint256 c = a + b;\r\n        if (c < a) return (false, 0);\r\n        return (true, c);\r\n    }\r\n\r\n    /**\r\n     * @dev Returns the substraction of two unsigned integers, with an overflow flag.\r\n     *\r\n     * _Available since v3.4._\r\n     */\r\n    function trySub(uint256 a, uint256 b)\r\n        internal\r\n        pure\r\n        returns (bool, uint256)\r\n    {\r\n        if (b > a) return (false, 0);\r\n        return (true, a - b);\r\n    }\r\n\r\n    /**\r\n     * @dev Returns the multiplication of two unsigned integers, with an overflow flag.\r\n     *\r\n     * _Available since v3.4._\r\n     */\r\n    function tryMul(uint256 a, uint256 b)\r\n        internal\r\n        pure\r\n        returns (bool, uint256)\r\n    {\r\n        // Gas optimization: this is cheaper than requiring 'a' not being zero, but the\r\n        // benefit is lost if 'b' is also tested.\r\n        // See: https://github.com/OpenZeppelin/openzeppelin-contracts/pull/522\r\n        if (a == 0) return (true, 0);\r\n        uint256 c = a * b;\r\n        if (c / a != b) return (false, 0);\r\n        return (true, c);\r\n    }\r\n\r\n    /**\r\n     * @dev Returns the division of two unsigned integers, with a division by zero flag.\r\n     *\r\n     * _Available since v3.4._\r\n     */\r\n    function tryDiv(uint256 a, uint256 b)\r\n        internal\r\n        pure\r\n        returns (bool, uint256)\r\n    {\r\n        if (b == 0) return (false, 0);\r\n        return (true, a / b);\r\n    }\r\n\r\n    /**\r\n     * @dev Returns the remainder of dividing two unsigned integers, with a division by zero flag.\r\n     *\r\n     * _Available since v3.4._\r\n     */\r\n    function tryMod(uint256 a, uint256 b)\r\n        internal\r\n        pure\r\n        returns (bool, uint256)\r\n    {\r\n        if (b == 0) return (false, 0);\r\n        return (true, a % b);\r\n    }\r\n\r\n    /**\r\n     * @dev Returns the addition of two unsigned integers, reverting on\r\n     * overflow.\r\n     *\r\n     * Counterpart to Solidity's `+` operator.\r\n     *\r\n     * Requirements:\r\n     *\r\n     * - Addition cannot overflow.\r\n     */\r\n    function add(uint256 a, uint256 b) internal pure returns (uint256) {\r\n        uint256 c = a + b;\r\n        require(c >= a, \"SafeMath: addition overflow\");\r\n        return c;\r\n    }\r\n\r\n    /**\r\n     * @dev Returns the subtraction of two unsigned integers, reverting on\r\n     * overflow (when the result is negative).\r\n     *\r\n     * Counterpart to Solidity's `-` operator.\r\n     *\r\n     * Requirements:\r\n     *\r\n     * - Subtraction cannot overflow.\r\n     */\r\n    function sub(uint256 a, uint256 b) internal pure returns (uint256) {\r\n        require(b <= a, \"SafeMath: subtraction overflow\");\r\n        return a - b;\r\n    }\r\n\r\n    /**\r\n     * @dev Returns the multiplication of two unsigned integers, reverting on\r\n     * overflow.\r\n     *\r\n     * Counterpart to Solidity's `*` operator.\r\n     *\r\n     * Requirements:\r\n     *\r\n     * - Multiplication cannot overflow.\r\n     */\r\n    function mul(uint256 a, uint256 b) internal pure returns (uint256) {\r\n        if (a == 0) return 0;\r\n        uint256 c = a * b;\r\n        require(c / a == b, \"SafeMath: multiplication overflow\");\r\n        return c;\r\n    }\r\n\r\n    /**\r\n     * @dev Returns the integer division of two unsigned integers, reverting on\r\n     * division by zero. The result is rounded towards zero.\r\n     *\r\n     * Counterpart to Solidity's `/` operator. Note: this function uses a\r\n     * `revert` opcode (which leaves remaining gas untouched) while Solidity\r\n     * uses an invalid opcode to revert (consuming all remaining gas).\r\n     *\r\n     * Requirements:\r\n     *\r\n     * - The divisor cannot be zero.\r\n     */\r\n    function div(uint256 a, uint256 b) internal pure returns (uint256) {\r\n        require(b > 0, \"SafeMath: division by zero\");\r\n        return a / b;\r\n    }\r\n\r\n    /**\r\n     * @dev Returns the remainder of dividing two unsigned integers. (unsigned integer modulo),\r\n     * reverting when dividing by zero.\r\n     *\r\n     * Counterpart to Solidity's `%` operator. This function uses a `revert`\r\n     * opcode (which leaves remaining gas untouched) while Solidity uses an\r\n     * invalid opcode to revert (consuming all remaining gas).\r\n     *\r\n     * Requirements:\r\n     *\r\n     * - The divisor cannot be zero.\r\n     */\r\n    function mod(uint256 a, uint256 b) internal pure returns (uint256) {\r\n        require(b > 0, \"SafeMath: modulo by zero\");\r\n        return a % b;\r\n    }\r\n\r\n    /**\r\n     * @dev Returns the subtraction of two unsigned integers, reverting with custom message on\r\n     * overflow (when the result is negative).\r\n     *\r\n     * CAUTION: This function is deprecated because it requires allocating memory for the error\r\n     * message unnecessarily. For custom revert reasons use {trySub}.\r\n     *\r\n     * Counterpart to Solidity's `-` operator.\r\n     *\r\n     * Requirements:\r\n     *\r\n     * - Subtraction cannot overflow.\r\n     */\r\n    function sub(\r\n        uint256 a,\r\n        uint256 b,\r\n        string memory errorMessage\r\n    ) internal pure returns (uint256) {\r\n        require(b <= a, errorMessage);\r\n        return a - b;\r\n    }\r\n\r\n    /**\r\n     * @dev Returns the integer division of two unsigned integers, reverting with custom message on\r\n     * division by zero. The result is rounded towards zero.\r\n     *\r\n     * CAUTION: This function is deprecated because it requires allocating memory for the error\r\n     * message unnecessarily. For custom revert reasons use {tryDiv}.\r\n     *\r\n     * Counterpart to Solidity's `/` operator. Note: this function uses a\r\n     * `revert` opcode (which leaves remaining gas untouched) while Solidity\r\n     * uses an invalid opcode to revert (consuming all remaining gas).\r\n     *\r\n     * Requirements:\r\n     *\r\n     * - The divisor cannot be zero.\r\n     */\r\n    function div(\r\n        uint256 a,\r\n        uint256 b,\r\n        string memory errorMessage\r\n    ) internal pure returns (uint256) {\r\n        require(b > 0, errorMessage);\r\n        return a / b;\r\n    }\r\n\r\n    /**\r\n     * @dev Returns the remainder of dividing two unsigned integers. (unsigned integer modulo),\r\n     * reverting with custom message when dividing by zero.\r\n     *\r\n     * CAUTION: This function is deprecated because it requires allocating memory for the error\r\n     * message unnecessarily. For custom revert reasons use {tryMod}.\r\n     *\r\n     * Counterpart to Solidity's `%` operator. This function uses a `revert`\r\n     * opcode (which leaves remaining gas untouched) while Solidity uses an\r\n     * invalid opcode to revert (consuming all remaining gas).\r\n     *\r\n     * Requirements:\r\n     *\r\n     * - The divisor cannot be zero.\r\n     */\r\n    function mod(\r\n        uint256 a,\r\n        uint256 b,\r\n        string memory errorMessage\r\n    ) internal pure returns (uint256) {\r\n        require(b > 0, errorMessage);\r\n        return a % b;\r\n    }\r\n}\r\n\r\n// File: @openzeppelin/contracts/utils/Address.sol\r\n\r\n/**\r\n * @dev Collection of functions related to the address type\r\n */\r\nlibrary Address {\r\n    /**\r\n     * @dev Returns true if `account` is a contract.\r\n     *\r\n     * [IMPORTANT]\r\n     * ====\r\n     * It is unsafe to assume that an address for which this function returns\r\n     * false is an externally-owned account (EOA) and not a contract.\r\n     *\r\n     * Among others, `isContract` will return false for the following\r\n     * types of addresses:\r\n     *\r\n     *  - an externally-owned account\r\n     *  - a contract in construction\r\n     *  - an address where a contract will be created\r\n     *  - an address where a contract lived, but was destroyed\r\n     * ====\r\n     */\r\n    function isContract(address account) internal view returns (bool) {\r\n        // This method relies on extcodesize, which returns 0 for contracts in\r\n        // construction, since the code is only stored at the end of the\r\n        // constructor execution.\r\n\r\n        uint256 size;\r\n        // solhint-disable-next-line no-inline-assembly\r\n        assembly {\r\n            size := extcodesize(account)\r\n        }\r\n        return size > 0;\r\n    }\r\n\r\n    /**\r\n     * @dev Replacement for Solidity's `transfer`: sends `amount` wei to\r\n     * `recipient`, forwarding all available gas and reverting on errors.\r\n     *\r\n     * https://eips.ethereum.org/EIPS/eip-1884[EIP1884] increases the gas cost\r\n     * of certain opcodes, possibly making contracts go over the 2300 gas limit\r\n     * imposed by `transfer`, making them unable to receive funds via\r\n     * `transfer`. {sendValue} removes this limitation.\r\n     *\r\n     * https://diligence.consensys.net/posts/2019/09/stop-using-soliditys-transfer-now/[Learn more].\r\n     *\r\n     * IMPORTANT: because control is transferred to `recipient`, care must be\r\n     * taken to not create reentrancy vulnerabilities. Consider using\r\n     * {ReentrancyGuard} or the\r\n     * https://solidity.readthedocs.io/en/v0.5.11/security-considerations.html#use-the-checks-effects-interactions-pattern[checks-effects-interactions pattern].\r\n     */\r\n    function sendValue(address payable recipient, uint256 amount) internal {\r\n        require(\r\n            address(this).balance >= amount,\r\n            \"Address: insufficient balance\"\r\n        );\r\n\r\n        // solhint-disable-next-line avoid-low-level-calls, avoid-call-value\r\n        (bool success, ) = recipient.call{value: amount}(\"\");\r\n        require(\r\n            success,\r\n            \"Address: unable to send value, recipient may have reverted\"\r\n        );\r\n    }\r\n\r\n    /**\r\n     * @dev Performs a Solidity function call using a low level `call`. A\r\n     * plain`call` is an unsafe replacement for a function call: use this\r\n     * function instead.\r\n     *\r\n     * If `target` reverts with a revert reason, it is bubbled up by this\r\n     * function (like regular Solidity function calls).\r\n     *\r\n     * Returns the raw returned data. To convert to the expected return value,\r\n     * use https://solidity.readthedocs.io/en/latest/units-and-global-variables.html?highlight=abi.decode#abi-encoding-and-decoding-functions[`abi.decode`].\r\n     *\r\n     * Requirements:\r\n     *\r\n     * - `target` must be a contract.\r\n     * - calling `target` with `data` must not revert.\r\n     *\r\n     * _Available since v3.1._\r\n     */\r\n    function functionCall(address target, bytes memory data)\r\n        internal\r\n        returns (bytes memory)\r\n    {\r\n        return functionCall(target, data, \"Address: low-level call failed\");\r\n    }\r\n\r\n    /**\r\n     * @dev Same as {xref-Address-functionCall-address-bytes-}[`functionCall`], but with\r\n     * `errorMessage` as a fallback revert reason when `target` reverts.\r\n     *\r\n     * _Available since v3.1._\r\n     */\r\n    function functionCall(\r\n        address target,\r\n        bytes memory data,\r\n        string memory errorMessage\r\n    ) internal returns (bytes memory) {\r\n        return functionCallWithValue(target, data, 0, errorMessage);\r\n    }\r\n\r\n    /**\r\n     * @dev Same as {xref-Address-functionCall-address-bytes-}[`functionCall`],\r\n     * but also transferring `value` wei to `target`.\r\n     *\r\n     * Requirements:\r\n     *\r\n     * - the calling contract must have an ETH balance of at least `value`.\r\n     * - the called Solidity function must be `payable`.\r\n     *\r\n     * _Available since v3.1._\r\n     */\r\n    function functionCallWithValue(\r\n        address target,\r\n        bytes memory data,\r\n        uint256 value\r\n    ) internal returns (bytes memory) {\r\n        return\r\n            functionCallWithValue(\r\n                target,\r\n                data,\r\n                value,\r\n                \"Address: low-level call with value failed\"\r\n            );\r\n    }\r\n\r\n    /**\r\n     * @dev Same as {xref-Address-functionCallWithValue-address-bytes-uint256-}[`functionCallWithValue`], but\r\n     * with `errorMessage` as a fallback revert reason when `target` reverts.\r\n     *\r\n     * _Available since v3.1._\r\n     */\r\n    function functionCallWithValue(\r\n        address target,\r\n        bytes memory data,\r\n        uint256 value,\r\n        string memory errorMessage\r\n    ) internal returns (bytes memory) {\r\n        require(\r\n            address(this).balance >= value,\r\n            \"Address: insufficient balance for call\"\r\n        );\r\n        require(isContract(target), \"Address: call to non-contract\");\r\n\r\n        // solhint-disable-next-line avoid-low-level-calls\r\n        (bool success, bytes memory returndata) = target.call{value: value}(\r\n            data\r\n        );\r\n        return _verifyCallResult(success, returndata, errorMessage);\r\n    }\r\n\r\n    /**\r\n     * @dev Same as {xref-Address-functionCall-address-bytes-}[`functionCall`],\r\n     * but performing a static call.\r\n     *\r\n     * _Available since v3.3._\r\n     */\r\n    function functionStaticCall(address target, bytes memory data)\r\n        internal\r\n        view\r\n        returns (bytes memory)\r\n    {\r\n        return\r\n            functionStaticCall(\r\n                target,\r\n                data,\r\n                \"Address: low-level static call failed\"\r\n            );\r\n    }\r\n\r\n    /**\r\n     * @dev Same as {xref-Address-functionCall-address-bytes-string-}[`functionCall`],\r\n     * but performing a static call.\r\n     *\r\n     * _Available since v3.3._\r\n     */\r\n    function functionStaticCall(\r\n        address target,\r\n        bytes memory data,\r\n        string memory errorMessage\r\n    ) internal view returns (bytes memory) {\r\n        require(isContract(target), \"Address: static call to non-contract\");\r\n\r\n        // solhint-disable-next-line avoid-low-level-calls\r\n        (bool success, bytes memory returndata) = target.staticcall(data);\r\n        return _verifyCallResult(success, returndata, errorMessage);\r\n    }\r\n\r\n    /**\r\n     * @dev Same as {xref-Address-functionCall-address-bytes-}[`functionCall`],\r\n     * but performing a delegate call.\r\n     *\r\n     * _Available since v3.4._\r\n     */\r\n    function functionDelegateCall(address target, bytes memory data)\r\n        internal\r\n        returns (bytes memory)\r\n    {\r\n        return\r\n            functionDelegateCall(\r\n                target,\r\n                data,\r\n                \"Address: low-level delegate call failed\"\r\n            );\r\n    }\r\n\r\n    /**\r\n     * @dev Same as {xref-Address-functionCall-address-bytes-string-}[`functionCall`],\r\n     * but performing a delegate call.\r\n     *\r\n     * _Available since v3.4._\r\n     */\r\n    function functionDelegateCall(\r\n        address target,\r\n        bytes memory data,\r\n        string memory errorMessage\r\n    ) internal returns (bytes memory) {\r\n        require(isContract(target), \"Address: delegate call to non-contract\");\r\n\r\n        // solhint-disable-next-line avoid-low-level-calls\r\n        (bool success, bytes memory returndata) = target.delegatecall(data);\r\n        return _verifyCallResult(success, returndata, errorMessage);\r\n    }\r\n\r\n    function _verifyCallResult(\r\n        bool success,\r\n        bytes memory returndata,\r\n        string memory errorMessage\r\n    ) private pure returns (bytes memory) {\r\n        if (success) {\r\n            return returndata;\r\n        } else {\r\n            // Look for revert reason and bubble it up if present\r\n            if (returndata.length > 0) {\r\n                // The easiest way to bubble the revert reason is using memory via assembly\r\n\r\n                // solhint-disable-next-line no-inline-assembly\r\n                assembly {\r\n                    let returndata_size := mload(returndata)\r\n                    revert(add(32, returndata), returndata_size)\r\n                }\r\n            } else {\r\n                revert(errorMessage);\r\n            }\r\n        }\r\n    }\r\n}\r\n\r\n// File: @openzeppelin/contracts/utils/EnumerableSet.sol\r\n\r\n/**\r\n * @dev Library for managing\r\n * https://en.wikipedia.org/wiki/Set_(abstract_data_type)[sets] of primitive\r\n * types.\r\n *\r\n * Sets have the following properties:\r\n *\r\n * - Elements are added, removed, and checked for existence in constant time\r\n * (O(1)).\r\n * - Elements are enumerated in O(n). No guarantees are made on the ordering.\r\n *\r\n * ```\r\n * contract Example {\r\n *     // Add the library methods\r\n *     using EnumerableSet for EnumerableSet.AddressSet;\r\n *\r\n *     // Declare a set state variable\r\n *     EnumerableSet.AddressSet private mySet;\r\n * }\r\n * ```\r\n *\r\n * As of v3.3.0, sets of type `bytes32` (`Bytes32Set`), `address` (`AddressSet`)\r\n * and `uint256` (`UintSet`) are supported.\r\n */\r\nlibrary EnumerableSet {\r\n    // To implement this library for multiple types with as little code\r\n    // repetition as possible, we write it in terms of a generic Set type with\r\n    // bytes32 values.\r\n    // The Set implementation uses private functions, and user-facing\r\n    // implementations (such as AddressSet) are just wrappers around the\r\n    // underlying Set.\r\n    // This means that we can only create new EnumerableSets for types that fit\r\n    // in bytes32.\r\n\r\n    struct Set {\r\n        // Storage of set values\r\n        bytes32[] _values;\r\n        // Position of the value in the `values` array, plus 1 because index 0\r\n        // means a value is not in the set.\r\n        mapping(bytes32 => uint256) _indexes;\r\n    }\r\n\r\n    /**\r\n     * @dev Add a value to a set. O(1).\r\n     *\r\n     * Returns true if the value was added to the set, that is if it was not\r\n     * already present.\r\n     */\r\n    function _add(Set storage set, bytes32 value) private returns (bool) {\r\n        if (!_contains(set, value)) {\r\n            set._values.push(value);\r\n            // The value is stored at length-1, but we add 1 to all indexes\r\n            // and use 0 as a sentinel value\r\n            set._indexes[value] = set._values.length;\r\n            return true;\r\n        } else {\r\n            return false;\r\n        }\r\n    }\r\n\r\n    /**\r\n     * @dev Removes a value from a set. O(1).\r\n     *\r\n     * Returns true if the value was removed from the set, that is if it was\r\n     * present.\r\n     */\r\n    function _remove(Set storage set, bytes32 value) private returns (bool) {\r\n        // We read and store the value's index to prevent multiple reads from the same storage slot\r\n        uint256 valueIndex = set._indexes[value];\r\n\r\n        if (valueIndex != 0) {\r\n            // Equivalent to contains(set, value)\r\n            // To delete an element from the _values array in O(1), we swap the element to delete with the last one in\r\n            // the array, and then remove the last element (sometimes called as 'swap and pop').\r\n            // This modifies the order of the array, as noted in {at}.\r\n\r\n            uint256 toDeleteIndex = valueIndex - 1;\r\n            uint256 lastIndex = set._values.length - 1;\r\n\r\n            // When the value to delete is the last one, the swap operation is unnecessary. However, since this occurs\r\n            // so rarely, we still do the swap anyway to avoid the gas cost of adding an 'if' statement.\r\n\r\n            bytes32 lastvalue = set._values[lastIndex];\r\n\r\n            // Move the last value to the index where the value to delete is\r\n            set._values[toDeleteIndex] = lastvalue;\r\n            // Update the index for the moved value\r\n            set._indexes[lastvalue] = toDeleteIndex + 1; // All indexes are 1-based\r\n\r\n            // Delete the slot where the moved value was stored\r\n            set._values.pop();\r\n\r\n            // Delete the index for the deleted slot\r\n            delete set._indexes[value];\r\n\r\n            return true;\r\n        } else {\r\n            return false;\r\n        }\r\n    }\r\n\r\n    /**\r\n     * @dev Returns true if the value is in the set. O(1).\r\n     */\r\n    function _contains(Set storage set, bytes32 value)\r\n        private\r\n        view\r\n        returns (bool)\r\n    {\r\n        return set._indexes[value] != 0;\r\n    }\r\n\r\n    /**\r\n     * @dev Returns the number of values on the set. O(1).\r\n     */\r\n    function _length(Set storage set) private view returns (uint256) {\r\n        return set._values.length;\r\n    }\r\n\r\n    /**\r\n     * @dev Returns the value stored at position `index` in the set. O(1).\r\n     *\r\n     * Note that there are no guarantees on the ordering of values inside the\r\n     * array, and it may change when more values are added or removed.\r\n     *\r\n     * Requirements:\r\n     *\r\n     * - `index` must be strictly less than {length}.\r\n     */\r\n    function _at(Set storage set, uint256 index)\r\n        private\r\n        view\r\n        returns (bytes32)\r\n    {\r\n        require(\r\n            set._values.length > index,\r\n            \"EnumerableSet: index out of bounds\"\r\n        );\r\n        return set._values[index];\r\n    }\r\n\r\n    // Bytes32Set\r\n\r\n    struct Bytes32Set {\r\n        Set _inner;\r\n    }\r\n\r\n    /**\r\n     * @dev Add a value to a set. O(1).\r\n     *\r\n     * Returns true if the value was added to the set, that is if it was not\r\n     * already present.\r\n     */\r\n    function add(Bytes32Set storage set, bytes32 value)\r\n        internal\r\n        returns (bool)\r\n    {\r\n        return _add(set._inner, value);\r\n    }\r\n\r\n    /**\r\n     * @dev Removes a value from a set. O(1).\r\n     *\r\n     * Returns true if the value was removed from the set, that is if it was\r\n     * present.\r\n     */\r\n    function remove(Bytes32Set storage set, bytes32 value)\r\n        internal\r\n        returns (bool)\r\n    {\r\n        return _remove(set._inner, value);\r\n    }\r\n\r\n    /**\r\n     * @dev Returns true if the value is in the set. O(1).\r\n     */\r\n    function contains(Bytes32Set storage set, bytes32 value)\r\n        internal\r\n        view\r\n        returns (bool)\r\n    {\r\n        return _contains(set._inner, value);\r\n    }\r\n\r\n    /**\r\n     * @dev Returns the number of values in the set. O(1).\r\n     */\r\n    function length(Bytes32Set storage set) internal view returns (uint256) {\r\n        return _length(set._inner);\r\n    }\r\n\r\n    /**\r\n     * @dev Returns the value stored at position `index` in the set. O(1).\r\n     *\r\n     * Note that there are no guarantees on the ordering of values inside the\r\n     * array, and it may change when more values are added or removed.\r\n     *\r\n     * Requirements:\r\n     *\r\n     * - `index` must be strictly less than {length}.\r\n     */\r\n    function at(Bytes32Set storage set, uint256 index)\r\n        internal\r\n        view\r\n        returns (bytes32)\r\n    {\r\n        return _at(set._inner, index);\r\n    }\r\n\r\n    // AddressSet\r\n\r\n    struct AddressSet {\r\n        Set _inner;\r\n    }\r\n\r\n    /**\r\n     * @dev Add a value to a set. O(1).\r\n     *\r\n     * Returns true if the value was added to the set, that is if it was not\r\n     * already present.\r\n     */\r\n    function add(AddressSet storage set, address value)\r\n        internal\r\n        returns (bool)\r\n    {\r\n        return _add(set._inner, bytes32(uint256(uint160(value))));\r\n    }\r\n\r\n    /**\r\n     * @dev Removes a value from a set. O(1).\r\n     *\r\n     * Returns true if the value was removed from the set, that is if it was\r\n     * present.\r\n     */\r\n    function remove(AddressSet storage set, address value)\r\n        internal\r\n        returns (bool)\r\n    {\r\n        return _remove(set._inner, bytes32(uint256(uint160(value))));\r\n    }\r\n\r\n    /**\r\n     * @dev Returns true if the value is in the set. O(1).\r\n     */\r\n    function contains(AddressSet storage set, address value)\r\n        internal\r\n        view\r\n        returns (bool)\r\n    {\r\n        return _contains(set._inner, bytes32(uint256(uint160(value))));\r\n    }\r\n\r\n    /**\r\n     * @dev Returns the number of values in the set. O(1).\r\n     */\r\n    function length(AddressSet storage set) internal view returns (uint256) {\r\n        return _length(set._inner);\r\n    }\r\n\r\n    /**\r\n     * @dev Returns the value stored at position `index` in the set. O(1).\r\n     *\r\n     * Note that there are no guarantees on the ordering of values inside the\r\n     * array, and it may change when more values are added or removed.\r\n     *\r\n     * Requirements:\r\n     *\r\n     * - `index` must be strictly less than {length}.\r\n     */\r\n    function at(AddressSet storage set, uint256 index)\r\n        internal\r\n        view\r\n        returns (address)\r\n    {\r\n        return address(uint160(uint256(_at(set._inner, index))));\r\n    }\r\n\r\n    // UintSet\r\n\r\n    struct UintSet {\r\n        Set _inner;\r\n    }\r\n\r\n    /**\r\n     * @dev Add a value to a set. O(1).\r\n     *\r\n     * Returns true if the value was added to the set, that is if it was not\r\n     * already present.\r\n     */\r\n    function add(UintSet storage set, uint256 value) internal returns (bool) {\r\n        return _add(set._inner, bytes32(value));\r\n    }\r\n\r\n    /**\r\n     * @dev Removes a value from a set. O(1).\r\n     *\r\n     * Returns true if the value was removed from the set, that is if it was\r\n     * present.\r\n     */\r\n    function remove(UintSet storage set, uint256 value)\r\n        internal\r\n        returns (bool)\r\n    {\r\n        return _remove(set._inner, bytes32(value));\r\n    }\r\n\r\n    /**\r\n     * @dev Returns true if the value is in the set. O(1).\r\n     */\r\n    function contains(UintSet storage set, uint256 value)\r\n        internal\r\n        view\r\n        returns (bool)\r\n    {\r\n        return _contains(set._inner, bytes32(value));\r\n    }\r\n\r\n    /**\r\n     * @dev Returns the number of values on the set. O(1).\r\n     */\r\n    function length(UintSet storage set) internal view returns (uint256) {\r\n        return _length(set._inner);\r\n    }\r\n\r\n    /**\r\n     * @dev Returns the value stored at position `index` in the set. O(1).\r\n     *\r\n     * Note that there are no guarantees on the ordering of values inside the\r\n     * array, and it may change when more values are added or removed.\r\n     *\r\n     * Requirements:\r\n     *\r\n     * - `index` must be strictly less than {length}.\r\n     */\r\n    function at(UintSet storage set, uint256 index)\r\n        internal\r\n        view\r\n        returns (uint256)\r\n    {\r\n        return uint256(_at(set._inner, index));\r\n    }\r\n}\r\n\r\n// File: @openzeppelin/contracts/utils/EnumerableMap.sol\r\n\r\n/**\r\n * @dev Library for managing an enumerable variant of Solidity's\r\n * https://solidity.readthedocs.io/en/latest/types.html#mapping-types[`mapping`]\r\n * type.\r\n *\r\n * Maps have the following properties:\r\n *\r\n * - Entries are added, removed, and checked for existence in constant time\r\n * (O(1)).\r\n * - Entries are enumerated in O(n). No guarantees are made on the ordering.\r\n *\r\n * ```\r\n * contract Example {\r\n *     // Add the library methods\r\n *     using EnumerableMap for EnumerableMap.UintToAddressMap;\r\n *\r\n *     // Declare a set state variable\r\n *     EnumerableMap.UintToAddressMap private myMap;\r\n * }\r\n * ```\r\n *\r\n * As of v3.0.0, only maps of type `uint256 -> address` (`UintToAddressMap`) are\r\n * supported.\r\n */\r\nlibrary EnumerableMap {\r\n    // To implement this library for multiple types with as little code\r\n    // repetition as possible, we write it in terms of a generic Map type with\r\n    // bytes32 keys and values.\r\n    // The Map implementation uses private functions, and user-facing\r\n    // implementations (such as Uint256ToAddressMap) are just wrappers around\r\n    // the underlying Map.\r\n    // This means that we can only create new EnumerableMaps for types that fit\r\n    // in bytes32.\r\n\r\n    struct MapEntry {\r\n        bytes32 _key;\r\n        bytes32 _value;\r\n    }\r\n\r\n    struct Map {\r\n        // Storage of map keys and values\r\n        MapEntry[] _entries;\r\n        // Position of the entry defined by a key in the `entries` array, plus 1\r\n        // because index 0 means a key is not in the map.\r\n        mapping(bytes32 => uint256) _indexes;\r\n    }\r\n\r\n    /**\r\n     * @dev Adds a key-value pair to a map, or updates the value for an existing\r\n     * key. O(1).\r\n     *\r\n     * Returns true if the key was added to the map, that is if it was not\r\n     * already present.\r\n     */\r\n    function _set(\r\n        Map storage map,\r\n        bytes32 key,\r\n        bytes32 value\r\n    ) private returns (bool) {\r\n        // We read and store the key's index to prevent multiple reads from the same storage slot\r\n        uint256 keyIndex = map._indexes[key];\r\n\r\n        if (keyIndex == 0) {\r\n            // Equivalent to !contains(map, key)\r\n            map._entries.push(MapEntry({_key: key, _value: value}));\r\n            // The entry is stored at length-1, but we add 1 to all indexes\r\n            // and use 0 as a sentinel value\r\n            map._indexes[key] = map._entries.length;\r\n            return true;\r\n        } else {\r\n            map._entries[keyIndex - 1]._value = value;\r\n            return false;\r\n        }\r\n    }\r\n\r\n    /**\r\n     * @dev Removes a key-value pair from a map. O(1).\r\n     *\r\n     * Returns true if the key was removed from the map, that is if it was present.\r\n     */\r\n    function _remove(Map storage map, bytes32 key) private returns (bool) {\r\n        // We read and store the key's index to prevent multiple reads from the same storage slot\r\n        uint256 keyIndex = map._indexes[key];\r\n\r\n        if (keyIndex != 0) {\r\n            // Equivalent to contains(map, key)\r\n            // To delete a key-value pair from the _entries array in O(1), we swap the entry to delete with the last one\r\n            // in the array, and then remove the last entry (sometimes called as 'swap and pop').\r\n            // This modifies the order of the array, as noted in {at}.\r\n\r\n            uint256 toDeleteIndex = keyIndex - 1;\r\n            uint256 lastIndex = map._entries.length - 1;\r\n\r\n            // When the entry to delete is the last one, the swap operation is unnecessary. However, since this occurs\r\n            // so rarely, we still do the swap anyway to avoid the gas cost of adding an 'if' statement.\r\n\r\n            MapEntry storage lastEntry = map._entries[lastIndex];\r\n\r\n            // Move the last entry to the index where the entry to delete is\r\n            map._entries[toDeleteIndex] = lastEntry;\r\n            // Update the index for the moved entry\r\n            map._indexes[lastEntry._key] = toDeleteIndex + 1; // All indexes are 1-based\r\n\r\n            // Delete the slot where the moved entry was stored\r\n            map._entries.pop();\r\n\r\n            // Delete the index for the deleted slot\r\n            delete map._indexes[key];\r\n\r\n            return true;\r\n        } else {\r\n            return false;\r\n        }\r\n    }\r\n\r\n    /**\r\n     * @dev Returns true if the key is in the map. O(1).\r\n     */\r\n    function _contains(Map storage map, bytes32 key)\r\n        private\r\n        view\r\n        returns (bool)\r\n    {\r\n        return map._indexes[key] != 0;\r\n    }\r\n\r\n    /**\r\n     * @dev Returns the number of key-value pairs in the map. O(1).\r\n     */\r\n    function _length(Map storage map) private view returns (uint256) {\r\n        return map._entries.length;\r\n    }\r\n\r\n    /**\r\n     * @dev Returns the key-value pair stored at position `index` in the map. O(1).\r\n     *\r\n     * Note that there are no guarantees on the ordering of entries inside the\r\n     * array, and it may change when more entries are added or removed.\r\n     *\r\n     * Requirements:\r\n     *\r\n     * - `index` must be strictly less than {length}.\r\n     */\r\n    function _at(Map storage map, uint256 index)\r\n        private\r\n        view\r\n        returns (bytes32, bytes32)\r\n    {\r\n        require(\r\n            map._entries.length > index,\r\n            \"EnumerableMap: index out of bounds\"\r\n        );\r\n\r\n        MapEntry storage entry = map._entries[index];\r\n        return (entry._key, entry._value);\r\n    }\r\n\r\n    /**\r\n     * @dev Tries to returns the value associated with `key`.  O(1).\r\n     * Does not revert if `key` is not in the map.\r\n     */\r\n    function _tryGet(Map storage map, bytes32 key)\r\n        private\r\n        view\r\n        returns (bool, bytes32)\r\n    {\r\n        uint256 keyIndex = map._indexes[key];\r\n        if (keyIndex == 0) return (false, 0); // Equivalent to contains(map, key)\r\n        return (true, map._entries[keyIndex - 1]._value); // All indexes are 1-based\r\n    }\r\n\r\n    /**\r\n     * @dev Returns the value associated with `key`.  O(1).\r\n     *\r\n     * Requirements:\r\n     *\r\n     * - `key` must be in the map.\r\n     */\r\n    function _get(Map storage map, bytes32 key) private view returns (bytes32) {\r\n        uint256 keyIndex = map._indexes[key];\r\n        require(keyIndex != 0, \"EnumerableMap: nonexistent key\"); // Equivalent to contains(map, key)\r\n        return map._entries[keyIndex - 1]._value; // All indexes are 1-based\r\n    }\r\n\r\n    /**\r\n     * @dev Same as {_get}, with a custom error message when `key` is not in the map.\r\n     *\r\n     * CAUTION: This function is deprecated because it requires allocating memory for the error\r\n     * message unnecessarily. For custom revert reasons use {_tryGet}.\r\n     */\r\n    function _get(\r\n        Map storage map,\r\n        bytes32 key,\r\n        string memory errorMessage\r\n    ) private view returns (bytes32) {\r\n        uint256 keyIndex = map._indexes[key];\r\n        require(keyIndex != 0, errorMessage); // Equivalent to contains(map, key)\r\n        return map._entries[keyIndex - 1]._value; // All indexes are 1-based\r\n    }\r\n\r\n    // UintToAddressMap\r\n\r\n    struct UintToAddressMap {\r\n        Map _inner;\r\n    }\r\n\r\n    /**\r\n     * @dev Adds a key-value pair to a map, or updates the value for an existing\r\n     * key. O(1).\r\n     *\r\n     * Returns true if the key was added to the map, that is if it was not\r\n     * already present.\r\n     */\r\n    function set(\r\n        UintToAddressMap storage map,\r\n        uint256 key,\r\n        address value\r\n    ) internal returns (bool) {\r\n        return _set(map._inner, bytes32(key), bytes32(uint256(uint160(value))));\r\n    }\r\n\r\n    /**\r\n     * @dev Removes a value from a set. O(1).\r\n     *\r\n     * Returns true if the key was removed from the map, that is if it was present.\r\n     */\r\n    function remove(UintToAddressMap storage map, uint256 key)\r\n        internal\r\n        returns (bool)\r\n    {\r\n        return _remove(map._inner, bytes32(key));\r\n    }\r\n\r\n    /**\r\n     * @dev Returns true if the key is in the map. O(1).\r\n     */\r\n    function contains(UintToAddressMap storage map, uint256 key)\r\n        internal\r\n        view\r\n        returns (bool)\r\n    {\r\n        return _contains(map._inner, bytes32(key));\r\n    }\r\n\r\n    /**\r\n     * @dev Returns the number of elements in the map. O(1).\r\n     */\r\n    function length(UintToAddressMap storage map)\r\n        internal\r\n        view\r\n        returns (uint256)\r\n    {\r\n        return _length(map._inner);\r\n    }\r\n\r\n    /**\r\n     * @dev Returns the element stored at position `index` in the set. O(1).\r\n     * Note that there are no guarantees on the ordering of values inside the\r\n     * array, and it may change when more values are added or removed.\r\n     *\r\n     * Requirements:\r\n     *\r\n     * - `index` must be strictly less than {length}.\r\n     */\r\n    function at(UintToAddressMap storage map, uint256 index)\r\n        internal\r\n        view\r\n        returns (uint256, address)\r\n    {\r\n        (bytes32 key, bytes32 value) = _at(map._inner, index);\r\n        return (uint256(key), address(uint160(uint256(value))));\r\n    }\r\n\r\n    /**\r\n     * @dev Tries to returns the value associated with `key`.  O(1).\r\n     * Does not revert if `key` is not in the map.\r\n     *\r\n     * _Available since v3.4._\r\n     */\r\n    function tryGet(UintToAddressMap storage map, uint256 key)\r\n        internal\r\n        view\r\n        returns (bool, address)\r\n    {\r\n        (bool success, bytes32 value) = _tryGet(map._inner, bytes32(key));\r\n        return (success, address(uint160(uint256(value))));\r\n    }\r\n\r\n    /**\r\n     * @dev Returns the value associated with `key`.  O(1).\r\n     *\r\n     * Requirements:\r\n     *\r\n     * - `key` must be in the map.\r\n     */\r\n    function get(UintToAddressMap storage map, uint256 key)\r\n        internal\r\n        view\r\n        returns (address)\r\n    {\r\n        return address(uint160(uint256(_get(map._inner, bytes32(key)))));\r\n    }\r\n\r\n    /**\r\n     * @dev Same as {get}, with a custom error message when `key` is not in the map.\r\n     *\r\n     * CAUTION: This function is deprecated because it requires allocating memory for the error\r\n     * message unnecessarily. For custom revert reasons use {tryGet}.\r\n     */\r\n    function get(\r\n        UintToAddressMap storage map,\r\n        uint256 key,\r\n        string memory errorMessage\r\n    ) internal view returns (address) {\r\n        return\r\n            address(\r\n                uint160(uint256(_get(map._inner, bytes32(key), errorMessage)))\r\n            );\r\n    }\r\n}\r\n\r\n// File: @openzeppelin/contracts/utils/Strings.sol\r\n\r\n/**\r\n * @dev String operations.\r\n */\r\nlibrary Strings {\r\n    /**\r\n     * @dev Converts a `uint256` to its ASCII `string` representation.\r\n     */\r\n    function toString(uint256 value) internal pure returns (string memory) {\r\n        // Inspired by OraclizeAPI's implementation - MIT licence\r\n        // https://github.com/oraclize/ethereum-api/blob/b42146b063c7d6ee1358846c198246239e9360e8/oraclizeAPI_0.4.25.sol\r\n\r\n        if (value == 0) {\r\n            return \"0\";\r\n        }\r\n        uint256 temp = value;\r\n        uint256 digits;\r\n        while (temp != 0) {\r\n            digits++;\r\n            temp /= 10;\r\n        }\r\n        bytes memory buffer = new bytes(digits);\r\n        uint256 index = digits - 1;\r\n        temp = value;\r\n        while (temp != 0) {\r\n            buffer[index--] = bytes1(uint8(48 + (temp % 10)));\r\n            temp /= 10;\r\n        }\r\n        return string(buffer);\r\n    }\r\n}\r\n\r\n// File: @openzeppelin/contracts/token/ERC721/ERC721.sol\r\n\r\n/**\r\n * @title ERC721 Non-Fungible Token Standard basic implementation\r\n * @dev see https://eips.ethereum.org/EIPS/eip-721\r\n */\r\n\r\ncontract ERC721 is\r\n    Context,\r\n    ERC165,\r\n    IERC721,\r\n    IERC721Metadata,\r\n    IERC721Enumerable\r\n{\r\n    using SafeMath for uint256;\r\n    using Address for address;\r\n    using EnumerableSet for EnumerableSet.UintSet;\r\n    using EnumerableMap for EnumerableMap.UintToAddressMap;\r\n    using Strings for uint256;\r\n\r\n    // Equals to `bytes4(keccak256(\"onERC721Received(address,address,uint256,bytes)\"))`\r\n    // which can be also obtained as `IERC721Receiver(0).onERC721Received.selector`\r\n    bytes4 private constant _ERC721_RECEIVED = 0x150b7a02;\r\n\r\n    // Mapping from holder address to their (enumerable) set of owned tokens\r\n    mapping(address => EnumerableSet.UintSet) private _holderTokens;\r\n\r\n    // Enumerable mapping from token ids to their owners\r\n    EnumerableMap.UintToAddressMap private _tokenOwners;\r\n\r\n    // Mapping from token ID to approved address\r\n    mapping(uint256 => address) private _tokenApprovals;\r\n\r\n    // Mapping from owner to operator approvals\r\n    mapping(address => mapping(address => bool)) private _operatorApprovals;\r\n\r\n    // Token name\r\n    string private _name;\r\n\r\n    // Token symbol\r\n    string private _symbol;\r\n\r\n    // Optional mapping for token URIs\r\n    mapping(uint256 => string) private _tokenURIs;\r\n    // Optional mapping for burnt token values\r\n    mapping(uint256 => uint256) private _burntTokenValues;\r\n    // Optional mapping for burnt token claimers\r\n    mapping(uint256 => string) private _tokenClaimers;\r\n\r\n    // Base URI\r\n    string private _baseURI;\r\n\r\n    /*\r\n     *     bytes4(keccak256('balanceOf(address)')) == 0x70a08231\r\n     *     bytes4(keccak256('ownerOf(uint256)')) == 0x6352211e\r\n     *     bytes4(keccak256('approve(address,uint256)')) == 0x095ea7b3\r\n     *     bytes4(keccak256('getApproved(uint256)')) == 0x081812fc\r\n     *     bytes4(keccak256('setApprovalForAll(address,bool)')) == 0xa22cb465\r\n     *     bytes4(keccak256('isApprovedForAll(address,address)')) == 0xe985e9c5\r\n     *     bytes4(keccak256('transferFrom(address,address,uint256)')) == 0x23b872dd\r\n     *     bytes4(keccak256('safeTransferFrom(address,address,uint256)')) == 0x42842e0e\r\n     *     bytes4(keccak256('safeTransferFrom(address,address,uint256,bytes)')) == 0xb88d4fde\r\n     *\r\n     *     => 0x70a08231 ^ 0x6352211e ^ 0x095ea7b3 ^ 0x081812fc ^\r\n     *        0xa22cb465 ^ 0xe985e9c5 ^ 0x23b872dd ^ 0x42842e0e ^ 0xb88d4fde == 0x80ac58cd\r\n     */\r\n    bytes4 private constant _INTERFACE_ID_ERC721 = 0x80ac58cd;\r\n\r\n    /*\r\n     *     bytes4(keccak256('name()')) == 0x06fdde03\r\n     *     bytes4(keccak256('symbol()')) == 0x95d89b41\r\n     *     bytes4(keccak256('tokenURI(uint256)')) == 0xc87b56dd\r\n     *\r\n     *     => 0x06fdde03 ^ 0x95d89b41 ^ 0xc87b56dd == 0x5b5e139f\r\n     */\r\n    bytes4 private constant _INTERFACE_ID_ERC721_METADATA = 0x5b5e139f;\r\n\r\n    /*\r\n     *     bytes4(keccak256('totalSupply()')) == 0x18160ddd\r\n     *     bytes4(keccak256('tokenOfOwnerByIndex(address,uint256)')) == 0x2f745c59\r\n     *     bytes4(keccak256('tokenByIndex(uint256)')) == 0x4f6ccce7\r\n     *\r\n     *     => 0x18160ddd ^ 0x2f745c59 ^ 0x4f6ccce7 == 0x780e9d63\r\n     */\r\n    bytes4 private constant _INTERFACE_ID_ERC721_ENUMERABLE = 0x780e9d63;\r\n\r\n    /**\r\n     * @dev Initializes the contract by setting a `name` and a `symbol` to the token collection.\r\n     */\r\n    constructor(string memory name_, string memory symbol_) {\r\n        _name = name_;\r\n        _symbol = symbol_;\r\n\r\n        // register the supported interfaces to conform to ERC721 via ERC165\r\n        _registerInterface(_INTERFACE_ID_ERC721);\r\n        _registerInterface(_INTERFACE_ID_ERC721_METADATA);\r\n        _registerInterface(_INTERFACE_ID_ERC721_ENUMERABLE);\r\n    }\r\n\r\n    /**\r\n     * @dev See {IERC721-balanceOf}.\r\n     */\r\n    function balanceOf(address owner)\r\n        public\r\n        view\r\n        virtual\r\n        override\r\n        returns (uint256)\r\n    {\r\n        require(\r\n            owner != address(0),\r\n            \"ERC721: balance query for the zero address\"\r\n        );\r\n        return _holderTokens[owner].length();\r\n    }\r\n\r\n    /**\r\n     * @dev See {IERC721-ownerOf}.\r\n     */\r\n    function ownerOf(uint256 tokenId)\r\n        public\r\n        view\r\n        virtual\r\n        override\r\n        returns (address)\r\n    {\r\n        return\r\n            _tokenOwners.get(\r\n                tokenId,\r\n                \"ERC721: owner query for nonexistent token\"\r\n            );\r\n    }\r\n\r\n    /**\r\n     * @dev See {IERC721Metadata-name}.\r\n     */\r\n    function name() public view virtual override returns (string memory) {\r\n        return _name;\r\n    }\r\n\r\n    /**\r\n     * @dev See {IERC721Metadata-symbol}.\r\n     */\r\n    function symbol() public view virtual override returns (string memory) {\r\n        return _symbol;\r\n    }\r\n\r\n    /**\r\n     * @dev See {IERC721Metadata-tokenURI}.\r\n     */\r\n    function tokenURI(uint256 tokenId)\r\n        public\r\n        view\r\n        virtual\r\n        override\r\n        returns (string memory)\r\n    {\r\n        require(\r\n            _exists(tokenId),\r\n            \"ERC721Metadata: URI query for nonexistent token\"\r\n        );\r\n\r\n        string memory _tokenURI = _tokenURIs[tokenId];\r\n        string memory base = baseURI();\r\n\r\n        // If there is no base URI, return the token URI.\r\n        if (bytes(base).length == 0) {\r\n            return _tokenURI;\r\n        }\r\n        // If both are set, concatenate the baseURI and tokenURI (via abi.encodePacked).\r\n        if (bytes(_tokenURI).length > 0) {\r\n            return string(abi.encodePacked(base, _tokenURI));\r\n        }\r\n        // If there is a baseURI but no tokenURI, concatenate the tokenID to the baseURI.\r\n        return string(abi.encodePacked(base, tokenId.toString()));\r\n    }\r\n\r\n    /**\r\n     * @dev Returns the base URI set via {_setBaseURI}. This will be\r\n     * automatically added as a prefix in {tokenURI} to each token's URI, or\r\n     * to the token ID if no specific URI is set for that token ID.\r\n     */\r\n    function baseURI() public view virtual returns (string memory) {\r\n        return _baseURI;\r\n    }\r\n\r\n    /**\r\n     * @dev See {IERC721Enumerable-tokenOfOwnerByIndex}.\r\n     */\r\n    function tokenOfOwnerByIndex(address owner, uint256 index)\r\n        public\r\n        view\r\n        virtual\r\n        override\r\n        returns (uint256)\r\n    {\r\n        return _holderTokens[owner].at(index);\r\n    }\r\n\r\n    /**\r\n     * @dev See {IERC721Enumerable-totalSupply}.\r\n     */\r\n    function totalSupply() public view virtual override returns (uint256) {\r\n        // _tokenOwners are indexed by tokenIds, so .length() returns the number of tokenIds\r\n        return _tokenOwners.length();\r\n    }\r\n\r\n    /**\r\n     * @dev See {IERC721Enumerable-tokenByIndex}.\r\n     */\r\n    function tokenByIndex(uint256 index)\r\n        public\r\n        view\r\n        virtual\r\n        override\r\n        returns (uint256)\r\n    {\r\n        (uint256 tokenId, ) = _tokenOwners.at(index);\r\n        return tokenId;\r\n    }\r\n\r\n    /**\r\n     * @dev See {IERC721-approve}.\r\n     */\r\n    function approve(address to, uint256 tokenId) public virtual override {\r\n        address owner = ERC721.ownerOf(tokenId);\r\n        require(to != owner, \"ERC721: approval to current owner\");\r\n\r\n        require(\r\n            _msgSender() == owner ||\r\n                ERC721.isApprovedForAll(owner, _msgSender()),\r\n            \"ERC721: approve caller is not owner nor approved for all\"\r\n        );\r\n\r\n        _approve(to, tokenId);\r\n    }\r\n\r\n    /**\r\n     * @dev See {IERC721-getApproved}.\r\n     */\r\n    function getApproved(uint256 tokenId)\r\n        public\r\n        view\r\n        virtual\r\n        override\r\n        returns (address)\r\n    {\r\n        require(\r\n            _exists(tokenId),\r\n            \"ERC721: approved query for nonexistent token\"\r\n        );\r\n\r\n        return _tokenApprovals[tokenId];\r\n    }\r\n\r\n    /**\r\n     * @dev See {IERC721-setApprovalForAll}.\r\n     */\r\n    function setApprovalForAll(address operator, bool approved)\r\n        public\r\n        virtual\r\n        override\r\n    {\r\n        require(operator != _msgSender(), \"ERC721: approve to caller\");\r\n\r\n        _operatorApprovals[_msgSender()][operator] = approved;\r\n        emit ApprovalForAll(_msgSender(), operator, approved);\r\n    }\r\n\r\n    /**\r\n     * @dev See {IERC721-isApprovedForAll}.\r\n     */\r\n    function isApprovedForAll(address owner, address operator)\r\n        public\r\n        view\r\n        virtual\r\n        override\r\n        returns (bool)\r\n    {\r\n        return _operatorApprovals[owner][operator];\r\n    }\r\n\r\n    /**\r\n     * @dev See {IERC721-transferFrom}.\r\n     */\r\n    function transferFrom(\r\n        address from,\r\n        address to,\r\n        uint256 tokenId\r\n    ) public virtual override {\r\n        //solhint-disable-next-line max-line-length\r\n        require(\r\n            _isApprovedOrOwner(_msgSender(), tokenId),\r\n            \"ERC721: transfer caller is not owner nor approved\"\r\n        );\r\n\r\n        _transfer(from, to, tokenId);\r\n    }\r\n\r\n    /**\r\n     * @dev See {IERC721-safeTransferFrom}.\r\n     */\r\n    function safeTransferFrom(\r\n        address from,\r\n        address to,\r\n        uint256 tokenId\r\n    ) public virtual override {\r\n        safeTransferFrom(from, to, tokenId, \"\");\r\n    }\r\n\r\n    /**\r\n     * @dev See {IERC721-safeTransferFrom}.\r\n     */\r\n    function safeTransferFrom(\r\n        address from,\r\n        address to,\r\n        uint256 tokenId,\r\n        bytes memory _data\r\n    ) public virtual override {\r\n        require(\r\n            _isApprovedOrOwner(_msgSender(), tokenId),\r\n            \"ERC721: transfer caller is not owner nor approved\"\r\n        );\r\n        _safeTransfer(from, to, tokenId, _data);\r\n    }\r\n\r\n    /**\r\n     * @dev Safely transfers `tokenId` token from `from` to `to`, checking first that contract recipients\r\n     * are aware of the ERC721 protocol to prevent tokens from being forever locked.\r\n     *\r\n     * `_data` is additional data, it has no specified format and it is sent in call to `to`.\r\n     *\r\n     * This internal function is equivalent to {safeTransferFrom}, and can be used to e.g.\r\n     * implement alternative mechanisms to perform token transfer, such as signature-based.\r\n     *\r\n     * Requirements:\r\n     *\r\n     * - `from` cannot be the zero address.\r\n     * - `to` cannot be the zero address.\r\n     * - `tokenId` token must exist and be owned by `from`.\r\n     * - If `to` refers to a smart contract, it must implement {IERC721Receiver-onERC721Received}, which is called upon a safe transfer.\r\n     *\r\n     * Emits a {Transfer} event.\r\n     */\r\n    function _safeTransfer(\r\n        address from,\r\n        address to,\r\n        uint256 tokenId,\r\n        bytes memory _data\r\n    ) internal virtual {\r\n        _transfer(from, to, tokenId);\r\n        require(\r\n            _checkOnERC721Received(from, to, tokenId, _data),\r\n            \"ERC721: transfer to non ERC721Receiver implementer\"\r\n        );\r\n    }\r\n\r\n    /**\r\n     * @dev Returns whether `tokenId` exists.\r\n     *\r\n     * Tokens can be managed by their owner or approved accounts via {approve} or {setApprovalForAll}.\r\n     *\r\n     * Tokens start existing when they are minted (`_mint`),\r\n     * and stop existing when they are burned (`_burn`).\r\n     */\r\n    function _exists(uint256 tokenId) internal view virtual returns (bool) {\r\n        return _tokenOwners.contains(tokenId);\r\n    }\r\n\r\n    /**\r\n     * @dev Returns whether `spender` is allowed to manage `tokenId`.\r\n     *\r\n     * Requirements:\r\n     *\r\n     * - `tokenId` must exist.\r\n     */\r\n    function _isApprovedOrOwner(address spender, uint256 tokenId)\r\n        internal\r\n        view\r\n        virtual\r\n        returns (bool)\r\n    {\r\n        require(\r\n            _exists(tokenId),\r\n            \"ERC721: operator query for nonexistent token\"\r\n        );\r\n        address owner = ERC721.ownerOf(tokenId);\r\n        return (spender == owner ||\r\n            getApproved(tokenId) == spender ||\r\n            ERC721.isApprovedForAll(owner, spender));\r\n    }\r\n\r\n    /**\r\n     * @dev Safely mints `tokenId` and transfers it to `to`.\r\n     *\r\n     * Requirements:\r\n     d*\r\n     * - `tokenId` must not exist.\r\n     * - If `to` refers to a smart contract, it must implement {IERC721Receiver-onERC721Received}, which is called upon a safe transfer.\r\n     *\r\n     * Emits a {Transfer} event.\r\n     */\r\n    function _safeMint(address to, uint256 tokenId) internal virtual {\r\n        _safeMint(to, tokenId, \"\");\r\n    }\r\n\r\n    /**\r\n     * @dev Same as {xref-ERC721-_safeMint-address-uint256-}[`_safeMint`], with an additional `data` parameter which is\r\n     * forwarded in {IERC721Receiver-onERC721Received} to contract recipients.\r\n     */\r\n    function _safeMint(\r\n        address to,\r\n        uint256 tokenId,\r\n        bytes memory _data\r\n    ) internal virtual {\r\n        _mint(to, tokenId);\r\n        require(\r\n            _checkOnERC721Received(address(0), to, tokenId, _data),\r\n            \"ERC721: transfer to non ERC721Receiver implementer\"\r\n        );\r\n    }\r\n\r\n    /**\r\n     * @dev Mints `tokenId` and transfers it to `to`.\r\n     *\r\n     * WARNING: Usage of this method is discouraged, use {_safeMint} whenever possible\r\n     *\r\n     * Requirements:\r\n     *\r\n     * - `tokenId` must not exist.\r\n     * - `to` cannot be the zero address.\r\n     *\r\n     * Emits a {Transfer} event.\r\n     */\r\n    function _mint(address to, uint256 tokenId) internal virtual {\r\n        require(to != address(0), \"ERC721: mint to the zero address\");\r\n        require(!_exists(tokenId), \"ERC721: token already minted\");\r\n\r\n        _beforeTokenTransfer(address(0), to, tokenId);\r\n\r\n        _holderTokens[to].add(tokenId);\r\n\r\n        _tokenOwners.set(tokenId, to);\r\n\r\n        emit Transfer(address(0), to, tokenId);\r\n    }\r\n\r\n    /**\r\n     * @dev Destroys `tokenId`.\r\n     * The approval is cleared when the token is burned.\r\n     *\r\n     * Requirements:\r\n     *\r\n     * - `tokenId` must exist.\r\n     *\r\n     * Emits a {Transfer} event.\r\n     */\r\n    function _burn(uint256 tokenId) internal virtual {\r\n        address owner = ERC721.ownerOf(tokenId); // internal owner\r\n\r\n        _beforeTokenTransfer(owner, address(0), tokenId);\r\n\r\n        // Clear approvals\r\n        _approve(address(0), tokenId);\r\n\r\n        // Clear metadata (if any)\r\n        if (bytes(_tokenURIs[tokenId]).length != 0) {\r\n            delete _tokenURIs[tokenId];\r\n        }\r\n\r\n        _holderTokens[owner].remove(tokenId);\r\n\r\n        _tokenOwners.remove(tokenId);\r\n\r\n        emit Transfer(owner, address(0), tokenId);\r\n    }\r\n\r\n    /**\r\n     * @dev Transfers `tokenId` from `from` to `to`.\r\n     *  As opposed to {transferFrom}, this imposes no restrictions on msg.sender.\r\n     *\r\n     * Requirements:\r\n     *\r\n     * - `to` cannot be the zero address.\r\n     * - `tokenId` token must be owned by `from`.\r\n     *\r\n     * Emits a {Transfer} event.\r\n     */\r\n    function _transfer(\r\n        address from,\r\n        address to,\r\n        uint256 tokenId\r\n    ) internal virtual {\r\n        require(\r\n            ERC721.ownerOf(tokenId) == from,\r\n            \"ERC721: transfer of token that is not own\"\r\n        ); // internal owner\r\n        require(to != address(0), \"ERC721: transfer to the zero address\");\r\n\r\n        _beforeTokenTransfer(from, to, tokenId);\r\n\r\n        // Clear approvals from the previous owner\r\n        _approve(address(0), tokenId);\r\n\r\n        _holderTokens[from].remove(tokenId);\r\n        _holderTokens[to].add(tokenId);\r\n\r\n        _tokenOwners.set(tokenId, to);\r\n\r\n        emit Transfer(from, to, tokenId);\r\n    }\r\n\r\n    /**\r\n     * @dev Sets `_tokenURI` as the tokenURI of `tokenId`.\r\n     *\r\n     * Requirements:\r\n     *\r\n     * - `tokenId` must exist.\r\n     */\r\n    function _setTokenURI(uint256 tokenId, string memory _tokenURI)\r\n        internal\r\n        virtual\r\n    {\r\n        require(\r\n            _exists(tokenId),\r\n            \"ERC721Metadata: URI set of nonexistent token\"\r\n        );\r\n        _tokenURIs[tokenId] = _tokenURI;\r\n    }\r\n\r\n    /**\r\n     * @dev Sets `_burntTokenValue` as the burntTokenValue of `tokenId`.\r\n     *\r\n     * Requirements:\r\n     *\r\n     * - `tokenId` must exist.\r\n     */\r\n    function _setBurntTokenValue(uint256 tokenId, uint256 _burntTokenValue)\r\n        internal\r\n        virtual\r\n    {\r\n        require(\r\n            _exists(tokenId),\r\n            \"ERC721Metadata: URI set of nonexistent token\"\r\n        );\r\n        _burntTokenValues[tokenId] = _burntTokenValue;\r\n    }\r\n\r\n    /**\r\n     * @dev Sets `_tokenClaimer` as the tokenClaimer of `tokenId`.\r\n     *\r\n     * Requirements:\r\n     *\r\n     * - `tokenId` must exist.\r\n     */\r\n    function _setTokenClaimer(uint256 tokenId, string memory _tokenClaimer)\r\n        internal\r\n        virtual\r\n    {\r\n        require(\r\n            _exists(tokenId),\r\n            \"ERC721Metadata: URI set of nonexistent token\"\r\n        );\r\n        _tokenClaimers[tokenId] = _tokenClaimer;\r\n    }\r\n\r\n    /**\r\n     * @dev Internal function to set the base URI for all token IDs. It is\r\n     * automatically added as a prefix to the value returned in {tokenURI},\r\n     * or to the token ID if {tokenURI} is empty.\r\n     */\r\n    function _setBaseURI(string memory baseURI_) internal virtual {\r\n        _baseURI = baseURI_;\r\n    }\r\n\r\n    /**\r\n     * @dev Internal function to invoke {IERC721Receiver-onERC721Received} on a target address.\r\n     * The call is not executed if the target address is not a contract.\r\n     *\r\n     * @param from address representing the previous owner of the given token ID\r\n     * @param to target address that will receive the tokens\r\n     * @param tokenId uint256 ID of the token to be transferred\r\n     * @param _data bytes optional data to send along with the call\r\n     * @return bool whether the call correctly returned the expected magic value\r\n     */\r\n    function _checkOnERC721Received(\r\n        address from,\r\n        address to,\r\n        uint256 tokenId,\r\n        bytes memory _data\r\n    ) private returns (bool) {\r\n        if (!to.isContract()) {\r\n            return true;\r\n        }\r\n        bytes memory returndata = to.functionCall(\r\n            abi.encodeWithSelector(\r\n                IERC721Receiver(to).onERC721Received.selector,\r\n                _msgSender(),\r\n                from,\r\n                tokenId,\r\n                _data\r\n            ),\r\n            \"ERC721: transfer to non ERC721Receiver implementer\"\r\n        );\r\n        bytes4 retval = abi.decode(returndata, (bytes4));\r\n        return (retval == _ERC721_RECEIVED);\r\n    }\r\n\r\n    /**\r\n     * @dev Approve `to` to operate on `tokenId`\r\n     *\r\n     * Emits an {Approval} event.\r\n     */\r\n    function _approve(address to, uint256 tokenId) internal virtual {\r\n        _tokenApprovals[tokenId] = to;\r\n        emit Approval(ERC721.ownerOf(tokenId), to, tokenId); // internal owner\r\n    }\r\n\r\n    /**\r\n     * @dev Hook that is called before any token transfer. This includes minting\r\n     * and burning.\r\n     *\r\n     * Calling conditions:\r\n     *\r\n     * - When `from` and `to` are both non-zero, ``from``'s `tokenId` will be\r\n     * transferred to `to`.\r\n     * - When `from` is zero, `tokenId` will be minted for `to`.\r\n     * - When `to` is zero, ``from``'s `tokenId` will be burned.\r\n     * - `from` cannot be the zero address.\r\n     * - `to` cannot be the zero address.\r\n     *\r\n     * To learn more about hooks, head to xref:ROOT:extending-contracts.adoc#using-hooks[Using Hooks].\r\n     */\r\n    function _beforeTokenTransfer(\r\n        address from,\r\n        address to,\r\n        uint256 tokenId\r\n    ) internal virtual {}\r\n}\r\n\r\n/**\r\n * @title Counters\r\n * @author Matt Condon (@shrugs)\r\n * @dev Provides counters that can only be incremented, decremented or reset. This can be used e.g. to track the number\r\n * of elements in a mapping, issuing ERC721 ids, or counting request ids.\r\n *\r\n * Include with `using Counters for Counters.Counter;`\r\n */\r\nlibrary Counters {\r\n    struct Counter {\r\n        // This variable should never be directly accessed by users of the library: interactions must be restricted to\r\n        // the library's function. As of Solidity v0.5.2, this cannot be enforced, though there is a proposal to add\r\n        // this feature: see https://github.com/ethereum/solidity/issues/4637\r\n        uint256 _value; // default: 0\r\n    }\r\n\r\n    function current(Counter storage counter) internal view returns (uint256) {\r\n        return counter._value;\r\n    }\r\n\r\n    function increment(Counter storage counter) internal {\r\n        // unchecked {\r\n        counter._value += 1;\r\n        // }\r\n    }\r\n\r\n    function decrement(Counter storage counter) internal {\r\n        uint256 value = counter._value;\r\n        require(value > 0, \"Counter: decrement overflow\");\r\n        // unchecked {\r\n        counter._value = value - 1;\r\n        // }\r\n    }\r\n\r\n    function reset(Counter storage counter) internal {\r\n        counter._value = 0;\r\n    }\r\n}\r\n\r\ncontract CCRToken is ERC721 {\r\n    using Counters for Counters.Counter;\r\n    Counters.Counter private _tokenIds;\r\n\r\n    constructor(string memory tokenName, string memory symbol)\r\n        ERC721(tokenName, symbol)\r\n    {}\r\n\r\n    function mintCCR(\r\n        address owner,\r\n        uint256 burntTokenValue,\r\n        string memory claimer\r\n    ) public returns (uint256) {\r\n        _tokenIds.increment();\r\n\r\n        uint256 id = _tokenIds.current();\r\n        _safeMint(owner, id);\r\n        _setBurntTokenValue(id, burntTokenValue);\r\n        _setTokenClaimer(id, claimer);\r\n\r\n        return id;\r\n    }\r\n}",
  "sourcePath": "F:/my-work/crypto/Tokenify-Contract/contracts/CCRToken.sol",
  "compiler": {
    "name": "solc",
    "version": "0.8.7+commit.e28d00a7.Emscripten.clang"
  },
  "schemaVersion": "3.3.4",
  "updatedAt": "2021-10-08T18:15:50.790Z",
  "devdoc": {
    "kind": "dev",
    "methods": {
      "approve(address,uint256)": {
        "details": "See {IERC721-approve}."
      },
      "balanceOf(address)": {
        "details": "See {IERC721-balanceOf}."
      },
      "baseURI()": {
        "details": "Returns the base URI set via {_setBaseURI}. This will be automatically added as a prefix in {tokenURI} to each token's URI, or to the token ID if no specific URI is set for that token ID."
      },
      "getApproved(uint256)": {
        "details": "See {IERC721-getApproved}."
      },
      "isApprovedForAll(address,address)": {
        "details": "See {IERC721-isApprovedForAll}."
      },
      "name()": {
        "details": "See {IERC721Metadata-name}."
      },
      "ownerOf(uint256)": {
        "details": "See {IERC721-ownerOf}."
      },
      "safeTransferFrom(address,address,uint256)": {
        "details": "See {IERC721-safeTransferFrom}."
      },
      "safeTransferFrom(address,address,uint256,bytes)": {
        "details": "See {IERC721-safeTransferFrom}."
      },
      "setApprovalForAll(address,bool)": {
        "details": "See {IERC721-setApprovalForAll}."
      },
      "supportsInterface(bytes4)": {
        "details": "See {IERC165-supportsInterface}. Time complexity O(1), guaranteed to always use less than 30 000 gas."
      },
      "symbol()": {
        "details": "See {IERC721Metadata-symbol}."
      },
      "tokenByIndex(uint256)": {
        "details": "See {IERC721Enumerable-tokenByIndex}."
      },
      "tokenOfOwnerByIndex(address,uint256)": {
        "details": "See {IERC721Enumerable-tokenOfOwnerByIndex}."
      },
      "tokenURI(uint256)": {
        "details": "See {IERC721Metadata-tokenURI}."
      },
      "totalSupply()": {
        "details": "See {IERC721Enumerable-totalSupply}."
      },
      "transferFrom(address,address,uint256)": {
        "details": "See {IERC721-transferFrom}."
      }
    },
    "version": 1
  },
  "userdoc": {
    "kind": "user",
    "methods": {},
    "version": 1
  }
}